:100000000C9409030C94FD180C9426030C942603FD
:100010000C9426030C9426030C9426030C942603BC
:100020000C9426030C9426030C9426030C942603AC
:100030000C9426030C9426030C9426030C9426039C
:100040000C94B3180C9426030C9426030C942603EA
:100050000C9426030C9426030C9426030C9426037C
:100060000C9426030C942603200020000FED03219E
:10007000534449534B494920434647004E6F205350
:100080004420696E7365727465640046415431366C
:1000900000464154333200547970653A2000436F72
:1000A00064653A2000534420426C6F636B204552D4
:1000B000524F52004D697373696E67204D42522052
:1000C000202000436C7573746572203C2033326BC2
:1000D00042004E6F742046415431362F3332202077
:1000E00000426F6F7420736563746F72202020006C
:1000F00053442063616E277420696E697420005335
:10010000442063616E27742069646C65200045207B
:10011000522052204F2052004E6F726D616C20535E
:1001200044206361726400534448432063617264F5
:1001300020202020200020536F7274696E67206693
:10014000696C6573202E2E2E20202000204E6F74A7
:1001500068696E6720666F756E64206865726521D8
:100160002000204275696C64696E67206C69737445
:10017000002053454C454354204E49432020202025
:1001800020202020202000547261636B3A20002040
:1001900053442053454C4543542044454C41592039
:1001A0002020202000204C434420434F4E545241F5
:1001B00053542020202020202020002056616C75E0
:1001C000653A200020526F74617465206469737011
:1001D0006C6179202020202020002053657420634A
:1001E0006F6E747261737420202020202020200004
:1001F000205365742053442064656C61792020206D
:10020000202020202000202020202020202020200E
:100210002020202020202020202020002053455472
:100220005550202020202020202020202020202069
:100230002000204E49432020202020202020202064
:100240002020202020202000202076657273696FF6
:100250006E20352E342028323031382900202020DD
:10026000202020534449534B205D5B0000000000D8
:100270000000000000000000000080C0E0F0F8F87E
:100280003800000000000000000000000000000036
:10029000000000000000000000000000000000005E
:1002A000000000000000000000000000000000004E
:1002B00000000000000000C0E0F0F0F8F8F8F8F8E6
:1002C000F8F8F0F0F7F7FFFBF9F8F8F8F8F8F8F0BD
:1002D00070000000000000000000000000000000AE
:1002E000000000000000000000000000000000000E
:1002F0000000C0E0E000000000000000000000007E
:10030000FFFFFFFFFFFFFFFFFFFFFFFFFFFFFFFFFD
:10031000FFFFFFFFFFFFFFFF83007CFEFFC7C7C794
:100320000707FFFF00FFFFFF0787C7C7EFFEFE18A5
:1003300000FFFFFF07C7C7C7FFFE7C00FFFFFF00EE
:100340007CFEFFC7C7E7F7FFFFDF071F7FFFFFFF49
:10035000FFFFFFFFFFFFFFFFFFFFFFFFFFFFFFFFAD
:10036000FFFFFFFEFC380101010100000101000751
:100370000F0F0001010101000000000F0F07000135
:100380000101010000000101010000000101010163
:10039000010101010000000103070F1F1F1F1F1FA4
:1003A0000F0F0F0F0F0F1F1F1F1F1F0F070300003F
:1003B000000000000000000000000000000000003D
:1003C000000000000000000000000000000000002D
:1003D0000000000000000000000000000000081401
:1003E0001C1C1C1C1C1C366363220000FFFFF7E36F
:1003F000E3F7FFFD0000007432524242424A4C2EA5
:1004000000000000000402FF0204000000000000E1
:10041000002040FF40200000000000002070A820C5
:1004200020203F0000000000FE8282828484FC00C5
:100430000000000000000000005F0000000700074F
:1004400000147F147F14242A7F2A12231308646265
:1004500036495522500005030000001C22410000CF
:1004600041221C0014083E081408083E08080050E9
:10047000300000080808080800606000002010082C
:1004800004023E5149453E00427F400042615149CD
:10049000462141454B311814127F102745454539F7
:1004A0003C4A494930017109050336494949360634
:1004B0004949291E0036360000005636000008144F
:1004C0002241001414141414004122140802015192
:1004D0000906324979413E7E1111117E7F49494911
:1004E000363E414141227F4141221C7F49494941D9
:1004F0007F090909013E4149497A7F0808087F00C0
:10050000417F41002040413F017F081422417F404C
:100510004040407F020C027F7F0408107F3E414133
:10052000413E7F090909063E4151215E7F09192993
:1005300046464949493101017F01013F4040403F62
:100540001F2040201F3F4038403F631408146307BA
:10055000087008076151494543007F41410002048A
:100560000810200041417F00040201020440404085
:100570004040000102040020545454787F48444411
:10058000383844444420384444487F38545454183C
:10059000087E0901020C5252523E7F080404780082
:1005A000447D40002040443D007F1028440000412D
:1005B0007F40007C041804787C08040478384444A4
:1005C00044387C14141408081414187C7C0804049F
:1005D000084854545420043F4440203C4040207C70
:1005E0001C2040201C3C4030403C44281028440C37
:1005F0005050503C4464544C4400083641000000C4
:100600007F000000413608001008081008000609A5
:10061000090611241FBECFEFD8E0DEBFCDBF11E029
:10062000A0E0B1E0E6EBF6E302C005900D92A63043
:10063000B107D9F726E0A6E0B1E001C01D92A83FBE
:10064000B207E1F70E9460190C94591B0C9400004A
:100650000E94F41162E085E20E9428118EE091E090
:100660000E94321264E086E10E9428118CE790E03B
:100670000E943212499BFECF089514B817B81AB8D9
:1006800015B818B81BB8249A2C9A399A3B9A419AF3
:1006900017BC14BC91E095BD22E025BF20936900F2
:1006A000109293061092CE061092CD061092CC06B0
:1006B0001092920610929106109299069093A106BC
:1006C0001092A006109210011092180129E131E059
:1006D0003093A3062093A206882329F10E94F211E9
:1006E0000E9464110E94F41160E080E00E942811D1
:1006F0000E949A1266E08DE00E9428118DE592E03A
:100700000E94321267E087E00E94281188E492E09C
:100710000E9432122FE988E99BE7215080409040E7
:10072000E1F700C0000008951F93CF93DF93182FC7
:10073000D62FC42F67E080E00E9428110E949812F3
:1007400086E092E00E94321267E080E00E94281169
:10075000812F90E00E94411267E08AE30E942811F5
:100760008D2F90E00E94411267E083E70E942811DC
:100770008C2F90E00E944112DF91CF911F910C9439
:100780009812FC01892B89F08081882379F0853EBD
:1007900061F08F3551F080858E3439F4818589344C
:1007A00021F481E09285933409F080E00895FC0102
:1007B000892B59F08081882349F0853E31F08F35AF
:1007C00021F0838582958170089580E00895CF920D
:1007D000DF92EF92FF920F931F93CF93DF938FEFF0
:1007E0009FEF90930101809300010E94FD166B0121
:1007F0007C01672B682B692BD9F180E090E00E9487
:100800002E1800E010E0C8010E948A17EC01892B25
:1008100049F18881853E11F0811124C08B858F308C
:1008200009F1109301010093000160E770E0CE012F
:100830000E94BD1A81E08B87FD8AEC8ADB8ECA8E0E
:100840006091D8067091D9068091DA069091DB0606
:10085000DF91CF911F910F91FF90EF90DF90CF909C
:100860000C9498140F5F1F4F003981E0180759F658
:10087000DF91CF911F910F91FF90EF90DF90CF907C
:1008800008958F929F92AF92BF92CF92DF92EF9294
:10089000FF921F93CF93DF93182FD62FC42F862F4D
:1008A00090E020E1429F800D911D1124FC010090F9
:1008B000F70602C0F695E7950A94E2F7EE0FFF1FE0
:1008C000EE0FFF1FEC55F94F40815181628173811A
:1008D00020E12BB91BB82091F60630E021503109F8
:1008E00082239323C090E306D090E406E090E506CF
:1008F000F090E60646015701880E991EA11CB11C16
:1009000042505109610971090090F70604C0440F73
:10091000551F661F771F0A94D2F7480D591D6A1D8F
:100920007B1D88E10E9491138FEF0E94C8128EEF09
:100930000E94C81280EB90E038E028E23BB92BB966
:100940000197E1F71BB883E00E94C8128CEF0E9468
:10095000C8128FEF0E94C8128FE30E94C8128FEC5A
:100960000E94C81283EF0E94C8128CEF0E94C81226
:100970008FEF0E94C8128FE30E94C8128FEC0E9472
:10098000C81283EF0E94C8128CEF0E94C81285ED36
:100990000E94C8128AEA0E94C81286E90E94C81200
:1009A0008FEF0E94C8128EEF0E94C8128C2F86957E
:1009B0008A6A0E94C8128C2F8A6A0E94C8128D2FE0
:1009C00086958A6A0E94C8128D2F8A6A0E94C81270
:1009D0008EEFD827CD278C2F86958A6A0E94C81261
:1009E0008C2F8A6A0E94C8128EED0E94C8128AEA71
:1009F0000E94C8128BEE0E94C8128FEF0E94C8128C
:100A00008FEF0E94C8128FEF0E94C8128FEF0E94D2
:100A1000C8128FEF0E94C8128EE591E0189FB001B6
:100A2000199F700D112480E090E050E2A8E0B8E238
:100A3000FB01E80FF91FE75EFE4FE08128E030E0A0
:100A400040E8FE2FF42319F0ABB9BBB902C01BB8C4
:100A50005BB9469521503109A1F701968D3521E00A
:100A6000920731F71BB880E790E038E028E23BB905
:100A70002BB90197E1F71BB880E093E020E21BB8A7
:100A80002BB90197E1F71BB88FEF0E94C8128FEFC7
:100A90000E94C8120E94DC120E94A31580E18BB94B
:100AA0001BB8DF91CF911F91FF90EF90DF90CF9017
:100AB000BF90AF909F908F900895CF92DF92EF926A
:100AC000FF920F931F93CF93DF93499B35C00CE0A8
:100AD00011E0F80181918F3F59F181E1C82E81E049
:100AE000D82E99E1E92E91E0F92EC0E0DFEFF80170
:100AF00060816F3F29F0F60140818C2F0E944104F4
:100B0000F801D1938F01F601D1936F01F7011282A1
:100B1000CF5FF2EAEF1AFEEFFF0AC43041F71092FE
:100B2000100189E191E09093A3068093A20604C08E
:100B300081E0E031F80771F6DF91CF911F910F91BD
:100B4000FF90EF90DF90CF90089580919106909163
:100B5000920680399C40C0F488E08BB98091910660
:100B60009091920628E238E0803140E1940730F419
:100B7000499B0AC02BB93BB90196F6CF80E99CE0AE
:100B800090939206809391060895499B6EC0909130
:100B90001001292F30E04EE551E0249FF001259F00
:100BA000F00D349FF00D1124E75EFE4F82818D3AE7
:100BB00009F042C080911801811131C080919306E3
:100BC000F901E45FFE4F8083F901EF5EFE4F409133
:100BD000A006469546954083282F2D7F2D3011F491
:100BE0008E5F01C08F5F8F7080939306933029F4DE
:100BF0000E94A5050E945D051CC09F5F9093100197
:100C00004EE551E0949F9001959F300D1124C9014C
:100C1000875E9E4F9093A3068093A2060DC080919D
:100C20000A0180939306109218018F30F1F40E940C
:100C3000A50581E08093A106209110018EE591E049
:100C4000289FF001299FF00D1124E75EFE4F82815D
:100C5000863959F487818575880F90859575892B1C
:100C600080930A0181E080931801089529E131E021
:100C700044E080E090E0F901E80FF91F108201964E
:100C80008E3551E09507B9F74150225A3E4F411138
:100C9000F0CF8FEF8093110180930C0180931201AC
:100CA00080930D018093130180930E0180931401B2
:100CB00080930F010895CF93C82F8FEF9FEF9093EC
:100CC0000101809300010E9489135C98499903C037
:100CD0000E9428034CC089E191E09093DD06809347
:100CE000DC060E94E614811144C00E94F41162E007
:100CF00085E20E9428118EE091E00E94321264E0A9
:100D000086E10E9428118091D506813019F48FEF79
:100D100090E004C0823029F480EF90E00E9432120B
:100D200022C0833019F481EE90E0F8CF843019F4BA
:100D300082ED90E0F3CF853019F483EC90E0EECFB4
:100D4000863019F484EB90E0E9CF873019F485EA16
:100D500090E0E4CF8EE990E00E9432128091D506B7
:100D600090E00E94F8111092CE064999FECF80E0E3
:100D7000B0C0CC23D9F00E94F41162E080E00E9460
:100D800028118091E006823019F487E291E002C0D8
:100D900088E191E00E9432125C982FEB85E692E5A3
:100DA000215080409040E1F700C000000E94AA1549
:100DB000811143C00E94F41162E085E20E94281173
:100DC0008EE091E00E94321264E086E10E942811D8
:100DD0008091D506813019F48FEF90E004C0823005
:100DE00029F480EF90E00E94321222C0833019F47F
:100DF00081EE90E0F8CF843019F482ED90E0F3CFEB
:100E0000853019F483EC90E0EECF863019F484EB52
:100E100090E0E9CF873019F485EA90E0E4CF8EE9DD
:100E200090E00E9432128091D50690E00E94F81165
:100E30001092CE064999FECF9ACF4091F6062091A6
:100E4000F0063091F106429FC001439F900D11249E
:100E500081159047D0F485E08093D5060E94F41167
:100E600062E085E20E9428118EE091E00E94321239
:100E700064E086E10E94281183EC90E00E94321227
:100E80001092CE064999FECF72CFCC23E1F064E0F8
:100E900080E00E94281187E990E00E943212809140
:100EA000E706863019F48BE890E002C081E990E013
:100EB0000E9432128FEB95E622E58150904020404F
:100EC000E1F700C000005C980E9436060E9485137E
:100ED00081E0CF9108958F929F92AF92BF92CF926F
:100EE000DF92EF92FF920F931F93CF93DF936115E1
:100EF000710519F480E090E055C17B01EC010E947E
:100F0000F41160E080E00E9428110E94961282E3B2
:100F100092E00E94321260E080E60E9428118091E7
:100F2000E706863019F48BE890E002C081E990E092
:100F30000E9432120E94961241E060E082E00E941C
:100F4000940362E080E00E94281181E090E00E941A
:100F500041126701570108E0A00EB11CF601819112
:100F60006F01803211F00E94B210AC14BD04B1F7D1
:100F7000D0930701C09306012091E706F701828D07
:100F8000938D2B3091F44489558960E070E0BA016B
:100F900055274427A0E0B0E08A019B01082B192BBC
:100FA0002A2B3B2BC901B80103C0BC0180E090E0B3
:100FB000611571058105910509F49CCFE4EAF6E01D
:100FC000119211921192119216E0EC3CF107C1F7C7
:100FD0006093A4067093A5068093A6069093A70637
:100FE00011E0663FFFEF7F0781059105A8F40E949D
:100FF0009716663F2FEF72078105910558F434E08C
:10100000139FF0011124EC55F94F608371838283A3
:1010100093831F5F1A3028F38090EC069090ED06C2
:10102000A090EE06B090EF06809100019091010132
:10103000019609F488C080E090E00E942E188FEF9E
:101040009FEFDC018093D8069093D906A093DA062F
:10105000B093DB0680910001909101010E949D18E0
:10106000FC012091E706828D938D2B3071F4C488AA
:10107000D588E12CF12C7601DD24CC24A0E0B0E071
:10108000C82AD92AEA2AFB2A03C06C01E12CF12CD8
:1010900002E0C01AD108E108F108A091F606B0E01C
:1010A000A70196010E94B21A0091E3061091E4068E
:1010B0002091E5063091E606600F711F821F931F95
:1010C0000E944114E091DC06F091DD068DEC92E087
:1010D000ABEAB1E080839183A283B38345815681DB
:1010E000678170858185928584169506A606B70668
:1010F00019F48C179D0731F04387548765877687ED
:10110000908B878785829682A782B086D287C18797
:101110008091D706848380919C06818BA091F606EE
:10112000B0E0A70196010E94B21AC090E306D090E9
:10113000E406E090E506F090E6066C0D7D1D8E1D40
:101140009F1D0E9498148092EC069092ED06A0924A
:10115000EE06B092EF06109292061092910610924F
:10116000CD0610929906C1E0C093A1061092A00688
:1011700010929306109210011092180189E191E0EB
:101180009093A3068093A2065C9840E052E060E052
:1011900070E080E10E94D6130E943606C093CE060E
:1011A00081E090E0DF91CF911F910F91FF90EF9040
:1011B000DF90CF90BF90AF909F908F900895CF9287
:1011C000DF92EF92FF920F931F93CF93DF93C09024
:1011D000EC06D090ED06E090EE06F090EF068091E0
:1011E000000190910101019609F477C080E090E040
:1011F0000E942E188FEF9FEFDC018093D80690930A
:10120000D906A093DA06B093DB0680910001909195
:1012100001010E949D18FC012091E706828D938DAB
:101220002B3079F424893589A90160E070E0BA0196
:1012300055274427A0E0B0E0842B952BA62BB72B95
:1012400002C0A0E0B0E09C01AD012250310941098B
:101250005109A091F606B0E00E94B21A0091E3068F
:101260001091E4062091E5063091E606600F711FAB
:10127000821F931F0E944114E091DC06F091DD066D
:101280008FEF9FEFDC018093D8069093D906A0934F
:10129000DA06B093DB0683859485A585B6858093B1
:1012A000EC069093ED06A093EE06B093EF06C7858B
:1012B000D089CE010E949D188C010E94C103882311
:1012C00061F0B801CE01DF91CF911F910F91FF9096
:1012D000EF90DF90CF900C946B07C092EC06D09209
:1012E000ED06E092EE06F092EF06DF91CF911F91AE
:1012F0000F91FF90EF90DF90CF9008955E9A2D9A16
:101300005F9A0895CF92DF92EF92FF920F931F930F
:10131000CF93DF938091000190910101019611F428
:10132000DFEA5BC080E090E00E942E1889E191E046
:101330009093DD068093DC060E9436061092D80654
:101340001092D9061092DA061092DB068091000105
:10135000909101010E949D18FC012091E706828D69
:10136000938D2B3079F424893589A90160E070E0F0
:10137000BA0155274427A0E0B0E0482B592B6A2B2F
:101380007B2B03C0AC0160E070E0A091F6069A01EF
:10139000AB012250310941095109B0E00E94B21A53
:1013A0000091E3061091E4062091E5063091E606EF
:1013B000600F711F821F931F0E944114E091DC0691
:1013C000F091DD0680819181A281B3818D3C9240B4
:1013D000AB4AB14009F0A4CFD1890E94F41160E07A
:1013E00080E00E9428110E94961285EA91E00E94F6
:1013F00032120E94961245E064E083E00E9494035A
:1014000062E080E00E9428118BEB91E00E94321292
:101410008D2F90E00E94F811ED2EFD2E0E947E0986
:10142000FE1481F062E080E00E9428118BEB91E0D5
:101430000E9432128F2D90E00E94F8118AE690E00F
:101440000E943212499BC0C04F9B13C04F99FECFE0
:101450008FEB9AE720E1815090402040E1F700C0F7
:101460000000CFEFCF0DC0939C068C2F0E94A410DC
:1014700001C0CF2D1D9B11C01D99FECF8FEB9AE7A8
:1014800020E1815090402040E1F700C00000CF5F94
:10149000C0939C068C2F0E94A410EF2C4E9902C082
:1014A000FC2EBCCF4E99FECF8FEB9AE720E1815006
:1014B00090402040E1F700C00000DC1709F484C030
:1014C000C0939C068C2F0E94A4105C988091000110
:1014D00090910101019609F477C080E090E00E94AC
:1014E0002E1889E191E09093DD068093DC060E943E
:1014F00036061092D8061092D9061092DA0610928B
:10150000DB0680910001909101010E949D18FC0171
:101510002091E706828D938D2B3071F4C488D58895
:10152000E12CF12C7601DD24CC24A0E0B0E0C82A27
:10153000D92AEA2AFB2A03C06C01E12CF12C82E0B3
:10154000C81AD108E108F108A091F606B0E0A70199
:1015500096010E94B21A0091E3061091E4062091D0
:10156000E5063091E606600F711F821F931F0E94EF
:101570004114E091DC06F091DD0680819181A28129
:10158000B3818D3C9240AB4AB140F1F4C18BA09144
:10159000F606B0E0A70196010E94B21AC090E306D9
:1015A000D090E406E090E506F090E6066C0D7D1D17
:1015B0008E1D9F1DDF91CF911F910F91FF90EF9096
:1015C000DF90CF900C949814DF91CF911F910F91E1
:1015D000FF90EF90DF90CF900895CF92DF92EF923F
:1015E000FF920F931F93CF93DF930E94F41160E05B
:1015F00080E00E9428110E9496128FE891E00E94DC
:1016000032120E94961244E065E083E00E94940347
:1016100063E080E00E9428118BEB91E00E9432127F
:101620008091D70690E00E94F811F090D706EF2C39
:10163000CAE0D1E00E947E098091D706E81699F0B1
:1016400063E080E00E9428118BEB91E00E9432124F
:101650008091D70690E00E94F81188E690E00E9401
:101660003212E090D706499BBFC04F9B14C04F99E0
:10167000FECF2FEB8AE790E1215080409040E1F7C8
:1016800000C000008091D706815019F08093D706E2
:1016900002C0C093D7061D9B15C01D99FECF2FEB2E
:1016A0008AE790E1215080409040E1F700C00000BF
:1016B0008091D7068F5F8B3018F48093D70602C0D5
:1016C000D093D7064E9BB6CF4E99FECF2FEB8AE72D
:1016D00090E1215080409040E1F700C000008091EF
:1016E000D706F81609F480C080910001909101019D
:1016F000019609F479C080E090E00E942E1889E1FB
:1017000091E09093DD068093DC060E9436061092ED
:10171000D8061092D9061092DA061092DB06809154
:101720000001909101010E949D18FC012091E706A3
:10173000828D938D2B3071F4C488D588E12CF12CE7
:101740007601DD24CC24A0E0B0E0C82AD92AEA2A18
:10175000FB2A03C06C01E12CF12C82E0C81AD108ED
:10176000E108F108A091F606B0E0A70196010E94F9
:10177000B21A0091E3061091E4062091E50630913B
:10178000E606600F711F821F931F0E944114E091B3
:10179000DC06F091DD0680819181A281B3818D3CD0
:1017A0009240AB4AB14001F58091D7068483A09165
:1017B000F606B0E0A70196010E94B21AC090E306B7
:1017C000D090E406E090E506F090E6066C0D7D1DF5
:1017D0008E1D9F1DDF91CF911F910F91FF90EF9074
:1017E000DF90CF900C949814DF91CF911F910F91BF
:1017F000FF90EF90DF90CF900895CF93DF930E94FA
:10180000F41160E080E00E9428110E9496128CE1A1
:1018100092E00E9432120E94961245E064E083E05A
:101820000E94940362E080E00E9428110E949412BA
:1018300080EF91E00E9432120E94941263E080E0F7
:101840000E9428118AED91E00E943212C1E00E94AC
:101850007E094F9B22C04F99FECF2FEB8AE790E184
:10186000215080409040E1F700C00000C130A1F459
:1018700062E080E00E94281180EF91E00E94321225
:101880000E94941263E080E00E9428118AED91E0AA
:101890000E9432120E949412C2E01D9B2CC01D991E
:1018A000FECF2FEB8AE790E1215080409040E1F796
:1018B00000C00000DFEFDC0F01F1D13011F40E9415
:1018C000941262E080E00E94281180EF91E00E9473
:1018D0003212C250C23010F40E94941263E080E0D1
:1018E0000E9428118AED91E00E943212D23031F428
:1018F0000E94941203C0DC2F01C0D1E04E9902C0B7
:10190000CD2FA5CF4E99FECF2FEB8AE790E1215046
:1019100080409040E1F700C00000D13021F4DF9119
:10192000CF910C94ED0AD23021F4DF91CF910C9439
:101930008209DF91CF910895AF92BF92CF92DF924B
:10194000EF92FF920F931F93CF93DF93CDB7DEB744
:1019500028970FB6F894DEBF0FBECDBF10920901D5
:101960001092080189E191E09093DD068093DC06F6
:1019700085ED93E090939E0680939D068FEF9FEFF9
:10198000DC018093D8069093D906A093DA06B09331
:10199000DB060E9436060E94961260E080E00E94FC
:1019A000281181E791E00E9432120E94961245E0D0
:1019B00064E083E00E94940311E0612F80E00E94C4
:1019C000281186E092E00E9432121F5F1630A9F7BC
:1019D00063E080E00E94281182E691E00E943212CA
:1019E00000E010E0C8010E949D187C01009799F06A
:1019F000FC01808181110FC0809108019091090143
:101A0000892BC9F563E080E00E9428118CE491E005
:101A10000E9432125DC1C7010E94C103811105C03D
:101A2000C7010E94D7038823B9F0E0910801F09123
:101A30000901EE0FFF1F80919D0690919E06E80F11
:101A4000F91F11830083809108019091090101968B
:101A500090930901809308010F5F1F4F8091080147
:101A600090910901883C91053CF60039F1E01F078F
:101A700009F0B8CFC1CF63E080E00E94281186E36F
:101A800091E00E9432128091080190910901029721
:101A90001CF0C12CD12C5CC02091080130910901AF
:101AA0004091060150910701E0919D06F0919E063C
:101AB00000E010E080E090E060C05801AA0CBB1C80
:101AC000E0919D06F0919E06EA0DFB1D80819181BB
:101AD0000E949D1848E050E0BC01CE0101960E9492
:101AE000DF1AE0919D06F0919E06EE0DFF1D8081AC
:101AF00091810E949D1848E050E0BC01CE01019602
:101B00000E94D21A97FF12C0E0919D06F0919E06A6
:101B1000DF01AA0DBB1D8D919C911197EE0DFF1D4C
:101B2000208131812D933C93918380830F5F1F4FE0
:101B300022E0E20EF11C80910801909109018C19BC
:101B40009D09081719070CF4B8CF8FEFC81AD80AE7
:101B500080910801909109010197C816D9060CF0EF
:101B60009BCFE12CF12C01E010E0E5CF6191719168
:101B70006417750709F48C01019682179307B4F373
:101B8000EE24EA94FE2C0E947E09499BA1C04F9B43
:101B900016C04F99FECF9FEBEAE7F0E19150E0408D
:101BA000F040E1F700C000000F5F1F4F8091080177
:101BB000909109010817190711F400E010E01D9B2E
:101BC00015C01D99FECF2FEB8AE790E12150804090
:101BD0009040E1F700C000000150110917FF06C056
:101BE0000091080110910901015011094E9B2FC06D
:101BF0004E99FECFEFEBFAE720E1E150F0402040B4
:101C0000E1F700C00000000F111FE0919D06F09168
:101C10009E06E00FF11F808191810E949D187C013A
:101C20000E94D703882331F0C7010E942E180E941A
:101C30009C0C4EC080919D0690919E06FC01E00F89
:101C4000F11FB701808191810E946B0741C00E1581
:101C50001F0509F498CFE0919D06F0919E06C801FA
:101C6000880F991FE80FF91F808191810E949D18AC
:101C70007C0163E080E00E942811C7010E94D70325
:101C8000882319F086E090E002C081E090E00E9495
:101C900041126701570188E0A80EB11CE12CF60142
:101CA00081916F01803219F00E94B210E394AC145C
:101CB000BD04A9F7F12C20E1E216F1043CF480E226
:101CC0000E94B210FFEFEF1AFF0AF5CF78015BCF49
:101CD00028960FB6F894DEBF0FBECDBFDF91CF912F
:101CE0001F910F91FF90EF90DF90CF90BF90AF903A
:101CF0000895CF92DF92EF92FF920F931F93CF93AD
:101D0000DF9389E191E09093DD068093DC068FEF0D
:101D10009FEFDC018093D8069093D906A093DA0652
:101D2000B093DB0680E090E00E942E188FEF9FEFCB
:101D30009093010180930001CFEFDFEF00E010E00E
:101D4000C8010E949D187C01009709F48FC0FC0116
:101D50008081882309F491C0C7010E94C1038823B0
:101D600029F0CF3FFFEFDF0709F4E8014BE050E037
:101D700060E770E0C7010E94C41A892B09F076C0A1
:101D800010930101009300012091E706F701828D75
:101D9000938D2B3079F424893589A90160E070E0B6
:101DA000BA0155274427A0E0B0E0482B592B6A2BF5
:101DB0007B2B03C0AC0160E070E0A091F6069A01B5
:101DC000AB012250310941095109B0E00E94B21A19
:101DD000C090E306D090E406E090E506F090E606B9
:101DE0006C0D7D1D8E1D9F1D0E944114E090DC0630
:101DF000F090DD06F70180819181A281B3818D3C55
:101E00009240AB4AB14051F5F70184818093D706E7
:101E1000818980939C060E94A4105C98F7018581BB
:101E20009681A781B0858093EC069093ED06A093F0
:101E3000EE06B093EF06D184F2848D2D9F2D0E9483
:101E40009D18009739F00E94C103882319F0CD2D09
:101E5000DF2D13C080E090E00E942E1880E090E01B
:101E60000E942E18CF3FFFEFDF07E1F40F5F1F4FF7
:101E7000003921E0120709F063CFCF3F8FEFD80779
:101E800089F4F8940E949C0C499B1BC08091CE065B
:101E9000882331F080916E00816080936E00E89A13
:101EA00078940FC0CE010E949D18BC01CE01DF9135
:101EB000CF911F910F91FF90EF90DF90CF900C94F6
:101EC0006B07DF91CF911F910F91FF90EF90DF9003
:101ED000CF9008950E947E09499912C08FEF90E03B
:101EE00049996EC00197E1F780916E008E7F8093D3
:101EF0006E00E8981092CE061092A1060C9428036A
:101F0000309B42C04E9904C04F9902C01D9B3CC0FB
:101F10004E9B10C084E690E021E04E9B20E00197AC
:101F2000E1F7222309F44CC04E99FECFF8940E94A9
:101F30009C0C27C04F9B15C024E630E081E099B18E
:101F4000990F990B892321503109C9F7882309F486
:101F500037C04F99FECFF8940E94FD0B499B30C0CB
:101F600022C01D9B2DC084E690E021E01D9B20E057
:101F70000197E1F7222321F11D99FECFF8940E94E9
:101F8000DF08499912C01CC08091CE06811118C08B
:101F90008FEF90E0499B14C00197E1F7F89481E03E
:101FA0000E945B0681110E94790E8091CE068823E3
:101FB00031F080916E00816080936E00E89A789491
:101FC000089596E09A95F1F708950895349BFECF11
:101FD000A894089508953D983C984598449888277A
:101FE0009927359B0895349B089581E0089581E0F9
:101FF0000895349BEBDF3D9AE4DF2AD0089581E019
:1020000008953C9ADEDF3D98DCDF3C98DADF349BB4
:10201000DDDF3D9AD6DF1CD0089581E008958F93CF
:102020008F918F93349BD2DF3D9ACBDF11D08823E1
:1020300011F404D0F5CF0F90089508953C9A3D9A7D
:10204000C0DF3C98BEDF349BC1DF3D98BADF089506
:102050000894881F01C0880FB9F03C9A0000000066
:10206000000018F400003D9802C03D9A00C0A9DFAE
:102070003C98A894000000000000349BA7DF12F4F5
:10208000882712C09EDFE7CF3C9A000000003D98F1
:1020900098DF992788273C98A8940000349B96DF06
:1020A0007AF3359B81E08DDF000000003C9A0895B3
:1020B00081E0089571E03C9A3D9800000000000026
:1020C00080DF3C987EDFA894000000000000349B75
:1020D0007DDFB2F0889435990894771F60F73C9AB9
:1020E000803011F03D9801C03D9A000000000000D2
:1020F00068DF3C98A89400000000349B67DF61DF34
:10210000000000003C9A872F9927089580E20895E7
:10211000CF93C82F88E70E94F90F80E00E94281013
:102120008C2F0E942810CF910C941E10CF93C82F93
:1021300088E70E94F90F80E40E9428108C2F0E94EB
:102140002810CF910C941E10CF93C82F81E890E0F7
:102150000E9488108C2F90E00E948810C093D206B5
:10216000CF9108950F931F93CF93DF93C82F88E7E4
:102170000E94F90F80E40E94281085E0C89FE001CA
:10218000112400E010E0C05AD109FE01E00FF11F58
:10219000EE5CFB4FE4918091D0068111E095809137
:1021A000D306813011F080E001C080E891E02091F9
:1021B000D106213009F090E0E92B8E2B0E942810E7
:1021C0000F5F1F4F0530110501F781E09091D00698
:1021D000913009F080E0982F91958091D30681305D
:1021E00011F020E001C020E881E03091D1063130CB
:1021F00009F080E0892B822B0E942810DF91CF917B
:102200001F910F910C941E10CF93DF93EC018991D5
:10221000882319F00E94B210FACFDF91CF91089570
:1022200081E09091D006911180E08093D0060895CE
:1022300081E09091D306911180E08093D3060895B8
:1022400081E09091D106911180E08093D1060895AC
:10225000CF93DF93C82F862F90E080559F4F0E9429
:102260008810C695C695C69588E0C89FE0011124E0
:1022700020919F06CE0188709927820F911D0E94A0
:102280008810CE0124E0959587952A95E1F7409630
:10229000DF91CF910C9488100F931F93CF93C0E0E0
:1022A0006C2F80E00E94281104E810E080E00E947A
:1022B000961001501109D1F7CF5FC83089F7CF913F
:1022C0001F910F910C941E1081EA90E00E948810DB
:1022D00088EC90E00E9488100C944C1180EA90E009
:1022E0000E94881080EC90E00E9488100C944C11A1
:1022F0000E94EB0F8EEA90E00E94881086EA90E040
:102300000E94881085ED90E00E94881080E890E09F
:102310000E94881088EA90E00E9488108FE390E085
:102320000E94881083ED90E00E94881080E090E089
:102330000E94881080E490E00E9488108DE890E070
:102340000E94881084E190E00E94881080E290E072
:102350000E94881080E090E00E94881080EA90E05F
:102360000E94881088EC90E00E9488108AED90E02E
:102370000E94881082E190E00E94881081E890E03D
:102380000E9488108FEC90E00E94881089ED90E008
:102390000E94881081EF90E00E9488108BED90E001
:1023A0000E94881080E490E00E94881084EA90E007
:1023B0000E94881086EA90E00E9488108FEA90E0E0
:1023C0000E9488108FEC8093D20680939C0682E056
:1023D00080939F061092D0061092D3061092D106D9
:1023E0000C946E110C9478110C944C110C940411F3
:1023F000CF93DF93CDB7DEB72A970FB6F894DEBF41
:102400000FBECDBF4AE0BE016F5F7F4F0E94F31A3F
:10241000CE0101960E9404112A960FB6F894DEBFF1
:102420000FBECDBFDF91CF910895CF93DF93CDB78E
:10243000DEB72A970FB6F894DEBF0FBECDBF2AE0F5
:10244000AE014F5F5F4F0E94FE1ACE0101960E94BF
:1024500004112A960FB6F894DEBF0FBECDBFDF91F0
:10246000CF910895CF93DF93FC018491EF012196E2
:10247000882321F00E94B210FE01F7CFDF91CF91A7
:102480000895EF92FF920F931F93CF93DF937C01F8
:102490008CE08E9D80018F9D100D1124C0E0D0E056
:1024A0008FEFE816F10439F0FE01E00FF11FE25260
:1024B000FC4FE49101C0E0E08091D0068111E095ED
:1024C0008091D306813011F080E001C080E891E076
:1024D0002091D106213009F090E0E92B8E2B0E944B
:1024E00096102196CC30D105D9F681E09091D00696
:1024F000913009F080E0982F91958091D30681303A
:1025000011F020E001C020E881E03091D1063130A7
:1025100009F080E0892B822BDF91CF911F910F91E1
:10252000FF90EF900C9496100C9410110C941811CD
:102530000C942011EF92FF920F931F93CF93E12CF5
:10254000F12CC0E06C2F89E10E94281100E010E01E
:10255000F801EE0DFF1DE459FD4F84910E94961085
:102560000F5F1F4F0A34110599F7CF5F8AE4E80E19
:10257000F11CC53039F7CF911F910F91FF90EF906B
:102580000895549A539A559A50981092D4060895E3
:1025900028E030E090E840E258E068E2782F7923C4
:1025A00019F05BB96BB902C01BB84BB996952150B5
:1025B0003109A1F71BB80895CF93DF931F92CDB7D0
:1025C000DEB788E08BB9198280E028E238E0998193
:1025D000983051F02BB999B1880F9170892B3BB984
:1025E00099819F5F9983F3CF0F90DF91CF910895E9
:1025F00088E38BB988E18BB9089528E100002A951A
:10260000E9F70197D1F708950895DF92EF92FF92CD
:102610000F931F93CF93DF93082FC8E0D0E010E80B
:1026200080E2F82E98E0E92E28E2D22E802F812336
:1026300039F0EBB881E090E00E94FD12DBB806C0F3
:102640001BB881E090E00E94FD12FBB8169521971F
:1026500069F781E090E00E94FD121BB8DF91CF91F5
:102660001F910F91FF90EF90DF9008959091D40605
:10267000911103C00E94051302C00E94C81280E09D
:102680000895FF920F931F93CF93DF931F92CDB7BF
:10269000DEB788E08BB981E090E00E94FD121982DC
:1026A00010E008E288E0F82E8981883091F00BB9BB
:1026B00081E090E00E94FD1289B1110F8170182B0A
:1026C000FBB881E090E00E94FD1289818F5F8983D1
:1026D000EBCF812F0F90DF91CF911F910F91FF9042
:1026E00008958091D406811102C00C9441130C947A
:1026F000DC1288E38BB981E090E00E94FD1288E152
:102700008BB981E090E00C94FD1281E08093D406B7
:1027100008951092D40608950E94DC1287FDFCCF24
:102720000895CF92DF92EF92FF92CF93C82F6A0164
:102730007B010090D60604C0CC0CDD1CEE1CFF1CF7
:102740000A94D2F78FEF0E94C8128C2F80640E94E7
:10275000C8128F2D0E94C8128E2D0E94C8128D2D76
:102760000E94C8128C2D0E94C81285E90E94C812CE
:102770008FEF0E94C8120E948C138093E106815053
:102780008E3FC8F3CF91FF90EF90DF90CF900895E8
:10279000AB01BC011092DF0681E10E9491130E94FF
:1027A000DC128093E2068E3FD1F70895CF92DF923C
:1027B000EF92FF92CF93DF93C82F6A017B01809144
:1027C000DE06811113C08FEE8C0F823040F088EE50
:1027D0008C0F823020F080EE8C0F823038F489E04C
:1027E000CC0CDD1CEE1CFF1C8A95D1F78FEF0E94EC
:1027F00036138C2F80640E9436138F2D0E9436135F
:102800008E2D0E9436138D2D0E9436138C2D0E9422
:102810003613C83011F487E801C085E90E943613E9
:10282000F12C0E947113D82F8F3F21F4FA94F110EC
:10283000F8CF1DC081111BC0CA33C9F40E947113A7
:102840001092D60686FF05C081E08093DE0682E006
:1028500006C01092DE0689E08093D60681E0809360
:10286000E0060E9471130E9471130E9471130E946E
:1028700071138D2FDF91CF91FF90EF90DF90CF906C
:102880000895CF92DF92EF92FF92CF93DF93C090A3
:10289000D806D090D906E090DA06F090DB06C6168E
:1028A000D706E806F906E1F16B017C016093D806D2
:1028B0007093D9068093DA069093DB065C988FEFCD
:1028C0000E9436138FEF0E943613B701A60181E1F3
:1028D0000E94D613811125C0C0E0D0E00E94711380
:1028E0008E3F29F02197D1F75C9A80E01AC0E12C45
:1028F000F12CC091DC06D091DD06CE0DDF1D0E94CB
:10290000711388838FEFE81AF80AE11482E0F80661
:1029100081F70E9471130E9471130E9471135C9AD7
:1029200081E0DF91CF91FF90EF90DF90CF900895FD
:10293000CF93DF93AB01BC0188E10E94D6138111D4
:102940003DC05C988EEF0E943613C0E0D0E0E0916D
:10295000DC06F091DD06EC0FFD1F80810E9436132E
:102960002196C11582E0D80791F78FEF0E943613A8
:102970008FEF0E9436130E947113982F9F7195302C
:1029800079F4C0E0D0E00E947113811103C0219658
:10299000D1F706C05C9A8FEF0E9436135C9808C08E
:1029A0005C9A0CC09E012F5F3F4F2196C9F3E9014D
:1029B0000E9471138823B1F35C9A81E0DF91CF917B
:1029C0000895AB01BC0180E10C94D613CF92DF9245
:1029D000EF92FF920F931F93CF93DF931092D50640
:1029E00085E08093D7060E94C1120E94891389B1A5
:1029F000C82FC27081FF98C080E185B95C9A8FE0D2
:102A000097E2A0E0B0E08093D8069093D906A09317
:102A1000DA06B093DB06C4E60E947913C150E1F7F1
:102A20005C98CCE08FEF0E943613C150D9F700E0DC
:102A300018E040E050E0BA0180E00E94D613015057
:102A4000110931F415B85C9A81E08093D5066CC009
:102A5000813079F7CCE08FEF0E943613C150D9F75F
:102A6000C1E0D2E04AEA51E060E070E088E00E9414
:102A7000D6138A3A49F481E08093E006C12CD12C28
:102A8000E12C80E4F82E09C08130A9F3219751F799
:102A90001092E006C12CD12C7601CCE08FEF0E9481
:102AA0003613C150D9F701E012E040E050E0BA011E
:102AB00087E30E94D613B701A60189E20E94D613CC
:102AC0000150110931F482E08093D50615B85C9A63
:102AD0002BC08111EACF1092DE0689E08093D606E2
:102AE0008091E006813081F040E050E0BA018BE354
:102AF0000E94D61360E072E080E090E00E94E11452
:102B000015B85C9AC1E010C0C5E6D0E08FEF0E9416
:102B1000361340E050E0BA018AE30E94D6132197B1
:102B200019F38111F3CFE0CF8C2FDF91CF911F915B
:102B30000F91FF90EF90DF90CF90089580E185B9DD
:102B4000089515B808950E94DC12499B02C08F3F7A
:102B5000D1F708958F929F92AF92BF92CF92DF925A
:102B6000EF92FF921F93CF93DF9360E070E0CB0171
:102B70000E944114E091DC06F091DD0680818D7F9A
:102B8000893E51F1DF01A250BE4F8D919C91853558
:102B90009A4A11F086E014C0E254FE4F848180937B
:102BA000E70660857185828593850E944114E091D6
:102BB000DC06F091DD0680818D7F893E29F083E07F
:102BC0008093D50680E0A7C08091E7068B3021F086
:102BD000863011F084E0F4CFC091DC06D091DD06A0
:102BE000438554855093F1064093F0061585109364
:102BF000F60686859785C48CD58CE68CF78CC80E36
:102C0000D91EE11CF11CC092F206D092F306E092AC
:102C1000F406F092F5068091E706863019F4A6894D
:102C2000B78902C0ACA1BDA1208930E02A9FB001C4
:102C30002B9F700D3A9F700D112446015701860E8F
:102C4000971EA11CB11C8092E3069092E406A0920C
:102C5000E506B092E6068630D9F08CA59DA5AEA516
:102C6000BFA59C01AD012250310941095109A12F95
:102C7000B0E00E94B21A860E971EA81EB91E80925E
:102C8000E8069092E906A092EA06B092EB0624C00C
:102C90000E94A31AC60ED71EE81EF91EC092E806AF
:102CA000D092E906E092EA06F092EB0681899289D9
:102CB00035E0880F991F3A95E1F7BA010E946D1A25
:102CC000C60ED71EE11CF11CC092E306D092E406AA
:102CD000E092E506F092E606812F90E020E031E0F8
:102CE000320F8130910521F096958795232FF7CFEC
:102CF0002093F7068091E8069091E906A091EA06F4
:102D0000B091EB068093EC069093ED06A093EE064F
:102D1000B093EF0681E0DF91CF911F91FF90EF908C
:102D2000DF90CF90BF90AF909F908F9008954F927B
:102D30005F926F927F928F929F92AF92BF92CF924B
:102D4000DF92EF92FF92CF932091E706263039F47D
:102D500088248A94982CA12CB12C21E007C08824C7
:102D60008A94982CA82C2FE0B22E22E004C0660F83
:102D7000771F881F991F2A95D2F72091F00630916E
:102D8000F10640E050E00E94811A6B017C018091C5
:102D9000F2069091F306A091F406B091F506290190
:102DA0003A01480E591E6A1E7B1ECAE0C301B201D9
:102DB0000E944114882311F0C150C1F78091DC06B4
:102DC0009091DD06FC01EC0DFD1D80819181A281B9
:102DD000B381BC01CD01682179218A219B21CF914A
:102DE000FF90EF90DF90CF90BF90AF909F908F902B
:102DF0007F906F905F904F9008954F925F926F9287
:102E00007F928F929F92AF92BF92CF92DF92EF927A
:102E1000FF92CF9388EEC82E83E0D82EE12CF12CC0
:102E2000C701B6010E9497166115710581059105CC
:102E300091F030EAC31636E8D30631E0E306F10438
:102E400031F02FEFC21AD20AE20AF20AE9CF60E0AB
:102E500070E0CB0151C040EAC41646E8D40641E018
:102E6000E406F10409F448C08091E706863011F4C5
:102E700081E001C082E0A701960104C0220F331F48
:102E8000441F551F8A95D2F7CA01B9012091F00657
:102E90003091F10640E050E00E94811A2B013C0184
:102EA0008091F2069091F306A091F406B091F50698
:102EB00049015A01880E991EAA1EBB1ECAE0C5010F
:102EC000B4010E944114882311F0C150C1F78091D0
:102ED000DC069091DD06FC01E40DF51D8FEF90E01E
:102EE000A0E0B0E080839183A283B383C501B401E5
:102EF0000E949814C701B601CF91FF90EF90DF9028
:102F0000CF90BF90AF909F908F907F906F905F9089
:102F10004F9008958F929F92AF92BF92CF92DF927F
:102F2000EF92FF920F931F93CF93DF93EC0155E045
:102F3000CC0FDD1F5A95E1F78E01012F1127069561
:102F40002091F606622F70E0C8010E946D1A7B0185
:102F50008091EC069091ED06A091EE06B091EF06FF
:102F6000672B09F44EC03091E706363071F480903B
:102F7000E8069090E906A090EA06B090EB06881566
:102F80009905AA05BB0509F45AC08090E306909004
:102F9000E406A090E506B090E606BC01CD016819F4
:102FA00079098A099B0930E040E050E00E94811ACB
:102FB000CA01B9016E5F7F4F8F4F9F4FC12CD12C3B
:102FC0000E9497162FEFC21AD20ACE14DF04C1F75F
:102FD0009B01AC012250310941095109A091F6062B
:102FE000B0E00E94B21A8090E3069090E406A090B0
:102FF000E506B090E606DC01CB01880D991DAA1DFF
:10300000BB1D9801322F2227330FC21BD30B4091D7
:10301000F6064E9D90014F9D300D1124021B130B9F
:10302000BC01CD01600F711F811D911D0E944114D3
:103030008091DC069091DD068C0F9D1F02C080E020
:1030400090E0DF91CF911F910F91FF90EF90DF9073
:10305000CF90BF90AF909F908F9008950F931F9344
:10306000FC01892B49F48091E8069091E906A09132
:10307000EA06B091EB0639C09385892F807194FFE1
:103080003DC02091E706828D938D2B3079F4248901
:103090003589A90160E070E0BA0155274427A0E016
:1030A000B0E0842B952BA62BB72B02C0A0E0B0E09C
:1030B0000097A105B105B9F29C01AD01225031097B
:1030C00041095109A091F606B0E00E94B21A0091A0
:1030D000E3061091E4062091E5063091E606DC0156
:1030E000CB01800F911FA21FB31F8093EC0690931A
:1030F000ED06A093EE06B093EF0681E01F910F91CD
:103100000895FC01892BB1F08081882399F0853ED8
:1031100089F08E3221F481818E3219F00BC0853016
:1031200049F083858E3131F08F3021F0883211F0F3
:10313000CF01089580E090E008950E948A170C94D2
:1031400081180000000000000000000000000000E6
:103150000000089500000000000000002091D70644
:103160002A95F1F70895AF93AFB7AF93BF932F931D
:10317000A091CD062091CC06A22BA8B9AAEAA6BDA3
:1031800020E0E8DFA091CC06A8B9B091A106BB234E
:1031900041F02093CD062F91BF91AF91AFBFAF917A
:1031A0001895A8E2ABB9A9B1A170AA0F2A2FA8E07F
:1031B000ABB9A0919106B09192061196A093910699
:1031C000B0939206A03989F4BC3079F4A1E0A093C1
:1031D000A106CF93C0E7A8E0B8E2BBB9B8E0BBB99D
:1031E000AA95D1F7CA95B9F7CF912093CD062F9123
:1031F000BF91AF91AFBFAF9118952F932FB72F937A
:1032000030995AC03F933091990626B124702327F4
:10321000E1F326B124702093990628E02A95F1F76E
:1032200000004F935F936F937F938F93EF93FF9380
:1032300060E0E091A206F091A3063DE541E00DC0FB
:103240005091990676B174707527E1F376B1747078
:10325000709399067EE07A95F1F727E081E079B1E5
:103260007470D1F400007EE17A95F1F776B1747054
:103270005091990670939906752776957695880FE3
:10328000872B2A9561F7853D09F461E06030C1F232
:10329000819331504040A1F69F93AF93BF930E941A
:1032A000C505BF91AF919F91FF91EF918F917F9154
:1032B0006F915F914F913F912F912FBF2F91189553
:1032C00081E00E943D038FEF80931501CBE80E94BF
:1032D0006A0F309B03C00E94A115F9CF0E949E1572
:1032E00083B18F7090910B01891759F180930B0175
:1032F000883049F0843009F4E7C0823009F4E6C030
:103300008130F9F4E5C082E09091A006890FE82FA2
:10331000E770E695F0E0E459FF4FE49180FFE29515
:10332000EF708E2F887009F0E86FE90FE53C08F028
:10333000D1C0E093A0068091A0068C3810F0C09315
:10334000A0068091CE06882309F4C1CF8091A10602
:10335000882309F4BCCFF894809193068F5F8F7017
:10336000809393062091A006269526952093CF065C
:1033700090E030E1239F800D911D112490939B06D6
:1033800080939A060090F70602C0969587950A9456
:10339000E2F79093170180931601880F991F880F09
:1033A000991FFC01EC55F94F80819181A281B38175
:1033B0008093940690939506A0939606B0939706F3
:1033C000809115012817B9F02093150164E08CE075
:1033D0000E94281187E891E00E9432128091CF0666
:1033E0008A3020F483E091E00E94F6118091CF06AC
:1033F00090E00E94F8118091930690910C0198132F
:1034000006C0209111019091CF062917F1F09091FB
:103410000D01891306C0209112019091CF06291742
:10342000A1F090910E01891306C020911301909193
:10343000CF06291751F090910F01891308C0909180
:1034400014018091CF06981302C00E945D058091FF
:10345000940690919506A0919606B09197060297D2
:10346000A109B109AC01BD010090F70604C0440FE9
:10347000551F661F771F0A94D2F78091E30690913B
:10348000E406A091E506B091E606840F951FA61FFD
:10349000B71F2091F60630E02150310940919A067D
:1034A00050919B0624233523BC01CD01620F731F6D
:1034B000811D911D0E94C8131092920610929106D0
:1034C0001092A106789403CF84E01ECF86E01CCF33
:1034D00080E01ACF1092A0062ECFAA1BBB1B51E191
:1034E00007C0AA1FBB1FA617B70710F0A61BB70B74
:1034F000881F991F5A95A9F780959095BC01CD0119
:103500000895A1E21A2EAA1BBB1BFD010DC0AA1F24
:10351000BB1FEE1FFF1FA217B307E407F50720F03C
:10352000A21BB30BE40BF50B661F771F881F991FB7
:103530001A9469F760957095809590959B01AC0100
:10354000BD01CF010895A29FB001B39FC001A39F09
:10355000700D811D1124911DB29F700D811D1124CC
:10356000911D08950E94A31AA59F900DB49F900DE0
:10357000A49F800D911D11240895FB01DC0105908D
:103580000D920020E1F70895FB01DC01415050400D
:1035900030F08D910590801919F40020B9F7881B3F
:1035A000990B0895FB01DC0104C08D9101908019F5
:1035B00021F441505040C8F7881B990B0895DC0155
:1035C000FB014150504058F049F001900D9200200D
:1035D000C1F7E61BF70B3197CF0108951C920190BC
:1035E0000020E9F7F6CFBB274A3031F4992322F4C3
:1035F000BDE2909581959F4F0C94301BBB272A30DC
:1036000051F4992342F4BDE29095809570956195AF
:103610007F4F8F4F9F4F0C940E1BBB27FA01A62F95
:103620006217710581059105330B30FB66F0AA27FF
:10363000660F771F881F991FAA1FA21710F0A21BE1
:1036400063953850A9F7A05DAA3308F0A95DA1934E
:1036500036F7B111B1931082CA010C94491BBB27F4
:10366000FB015527AA27880F991FAA1FA41710F03E
:10367000A41B83955051B9F7A05DAA3308F0A95D4A
:10368000A193009779F7B111B1931192CB010C94EA
:10369000491BDC01FC01672F71917723E1F7329719
:1036A00004C07C916D9370836291AE17BF07C8F31D
:0636B0000895F894FFCF1D
:0636B600FFFFFE200000F2
:00000001FF
