:100000000C9409030C94E6180C9426030C94260314
:100010000C9426030C9426030C9426030C942603BC
:100020000C9426030C9426030C9426030C942603AC
:100030000C9426030C9426030C9426030C9426039C
:100040000C949C180C9426030C9426030C94260301
:100050000C9426030C9426030C9426030C9426037C
:100060000C9426030C942603200020000FED03219E
:10007000534449534B494920434647004E6F205350
:100080004420696E7365727465640046415431366C
:1000900000464154333200547970653A2000436F72
:1000A00064653A2000534420426C6F636B204552D4
:1000B000524F52004D697373696E67204D42522052
:1000C000202000436C7573746572203C2033326BC2
:1000D00042004E6F742046415431362F3332202077
:1000E00000426F6F7420736563746F72202020006C
:1000F00053442063616E277420696E697420005335
:10010000442063616E27742069646C65200045207B
:10011000522052204F2052004E6F726D616C20535E
:1001200044206361726400534448432063617264F5
:1001300020202020200020536F7274696E67206693
:10014000696C6573202E2E2E20202000204E6F74A7
:1001500068696E6720666F756E64206865726521D8
:100160002000204275696C64696E67206C69737445
:10017000002053454C454354204E49432020202025
:1001800020202020202000547261636B3A20002040
:1001900053442053454C4543542044454C41592039
:1001A0002020202000204C434420434F4E545241F5
:1001B00053542020202020202020002056616C75E0
:1001C000653A200020526F74617465206469737011
:1001D0006C6179202020202020002053657420634A
:1001E0006F6E747261737420202020202020200004
:1001F000205365742053442064656C61792020206D
:10020000202020202000202020202020202020200E
:100210002020202020202020202020002053455472
:100220005550202020202020202020202020202069
:100230002000204E49432020202020202020202064
:100240002020202020202000202076657273696FF6
:100250006E20352E352028323032322900202020E1
:10026000202020534449534B205D5B0000000000D8
:100270000000000000000000000080C0E0F0F8F87E
:100280003800000000000000000000000000000036
:10029000000000000000000000000000000000005E
:1002A000000000000000000000000000000000004E
:1002B00000000000000000C0E0F0F0F8F8F8F8F8E6
:1002C000F8F8F0F0F7F7FFFBF9F8F8F8F8F8F8F0BD
:1002D00070000000000000000000000000000000AE
:1002E000000000000000000000000000000000000E
:1002F0000000C0E0E000000000000000000000007E
:10030000FFFFFFFFFFFFFFFFFFFFFFFFFFFFFFFFFD
:10031000FFFFFFFFFFFFFFFF83007CFEFFC7C7C794
:100320000707FFFF00FFFFFF0787C7C7EFFEFE18A5
:1003300000FFFFFF07C7C7C7FFFE7C00FFFFFF00EE
:100340007CFEFFC7C7E7F7FFFFDF071F7FFFFFFF49
:10035000FFFFFFFFFFFFFFFFFFFFFFFFFFFFFFFFAD
:10036000FFFFFFFEFC380101010100000101000751
:100370000F0F0001010101000000000F0F07000135
:100380000101010000000101010000000101010163
:10039000010101010000000103070F1F1F1F1F1FA4
:1003A0000F0F0F0F0F0F1F1F1F1F1F0F070300003F
:1003B000000000000000000000000000000000003D
:1003C000000000000000000000000000000000002D
:1003D0000000000000000000000000000000081401
:1003E0001C1C1C1C1C1C366363220000FFFFF7E36F
:1003F000E3F7FFFD0000007432524242424A4C2EA5
:1004000000000000000402FF0204000000000000E1
:10041000002040FF40200000000000002070A820C5
:1004200020203F0000000000FE8282828484FC00C5
:100430000000000000000000005F0000000700074F
:1004400000147F147F14242A7F2A12231308646265
:1004500036495522500005030000001C22410000CF
:1004600041221C0014083E081408083E08080050E9
:10047000300000080808080800606000002010082C
:1004800004023E5149453E00427F400042615149CD
:10049000462141454B311814127F102745454539F7
:1004A0003C4A494930017109050336494949360634
:1004B0004949291E0036360000005636000008144F
:1004C0002241001414141414004122140802015192
:1004D0000906324979413E7E1111117E7F49494911
:1004E000363E414141227F4141221C7F49494941D9
:1004F0007F090909013E4149497A7F0808087F00C0
:10050000417F41002040413F017F081422417F404C
:100510004040407F020C027F7F0408107F3E414133
:10052000413E7F090909063E4151215E7F09192993
:1005300046464949493101017F01013F4040403F62
:100540001F2040201F3F4038403F631408146307BA
:10055000087008076151494543007F41410002048A
:100560000810200041417F00040201020440404085
:100570004040000102040020545454787F48444411
:10058000383844444420384444487F38545454183C
:10059000087E0901020C5252523E7F080404780082
:1005A000447D40002040443D007F1028440000412D
:1005B0007F40007C041804787C08040478384444A4
:1005C00044387C14141408081414187C7C0804049F
:1005D000084854545420043F4440203C4040207C70
:1005E0001C2040201C3C4030403C44281028440C37
:1005F0005050503C4464544C4400083641000000C4
:100600007F000000413608001008081008000609A5
:10061000090611241FBECFEFD8E0DEBFCDBF11E029
:10062000A0E0B1E0E8E8F6E302C005900D92A63044
:10063000B107D9F726E0A6E0B1E001C01D92A83FBE
:10064000B207E1F70E9449190C94421B0C94000078
:100650000E94411162E085E20E941D118EE091E04E
:100660000E94211264E086E10E941D118CE790E057
:100670000E942112499BFECF089514B817B81AB8EA
:1006800015B818B81BB8249A2C9A399A3B9A419AF3
:1006900017BC14BC91E095BD22E025BF20936900F2
:1006A000109294061092CE061092CD061092CC06AF
:1006B000109292061092910610929A069093A006BC
:1006C00010929F06109210011092180129E131E05A
:1006D0003093A3062093A206882319F10E94631188
:1006E0000E94411160E080E00E941D110E9483126F
:1006F00066E08DE00E941D118DE592E00E942112BE
:1007000067E087E00E941D1188E492E00E942112B8
:100710002FE988E99BE7215080409040E1F700C035
:10072000000008951F93CF93DF93182FD62FC42F67
:1007300067E080E00E941D110E94151186E092E0A2
:100740000E94211267E080E00E941D11812F90E03D
:100750000E94301267E08AE30E941D118D2F90E005
:100760000E94301267E083E70E941D118C2F90E0F9
:100770000E943012DF91CF911F910C941511FC0152
:10078000892B89F08081882379F0853E61F08F354F
:1007900051F080858E3439F48185893421F481E0EB
:1007A0009285933409F080E00895FC01892B59F07B
:1007B0008081882349F0853E31F08F3521F0838593
:1007C00082958170089580E00895CF92DF92EF9234
:1007D000FF920F931F93CF93DF938FEF9FEF909331
:1007E0000101809300010E94E6166B017C01672BDA
:1007F000682B692BD9F180E090E00E94171800E087
:1008000010E0C8010E947317EC01892B49F188811F
:10081000853E11F0811124C08B858F3009F1109332
:1008200001010093000160E770E0CE010E94A61A6A
:1008300081E08B87FD8AEC8ADB8ECA8E6091D806B8
:100840007091D9068091DA069091DB06DF91CF9105
:100850001F910F91FF90EF90DF90CF900C94811437
:100860000F5F1F4F003981E0180759F6DF91CF91D4
:100870001F910F91FF90EF90DF90CF9008958F928E
:100880009F92AF92BF92CF92DF92EF92FF921F930F
:10089000CF93DF93182FD62FC42F862F90E020E11F
:1008A000429F800D911D1124FC010090F70602C0AB
:1008B000F695E7950A94E2F7EE0FFF1FEE0FFF1F84
:1008C000EC55F94F408151816281738120E12BB950
:1008D0001BB82091F60630E0215031098223932382
:1008E000C090E306D090E406E090E506F090E606BE
:1008F00046015701880E991EA11CB11C4250510996
:10090000610971090090F70604C0440F551F661F66
:10091000771F0A94D2F7480D591D6A1D7B1D88E187
:100920000E947A138FEF0E94B1128EEF0E94B112D3
:1009300080EB90E038E028E23BB92BB90197E1F772
:100940001BB883E00E94B1128CEF0E94B1128FEFAE
:100950000E94B1128FE30E94B1128FEC0E94B1127B
:1009600083EF0E94B1128CEF0E94B1128FEF0E94B0
:10097000B1128FE30E94B1128FEC0E94B11283EF8B
:100980000E94B1128CEF0E94B11285ED0E94B1124B
:100990008AEA0E94B11286E90E94B1128FEF0E948A
:1009A000B1128EEF0E94B1128C2F86958A6A0E9436
:1009B000B1128C2F8A6A0E94B1128D2F86958A6A95
:1009C0000E94B1128D2F8A6A0E94B1128EEFD82731
:1009D000CD278C2F86958A6A0E94B1128C2F8A6A45
:1009E0000E94B1128EED0E94B1128AEA0E94B112E9
:1009F0008BEE0E94B1128FEF0E94B1128FEF0E9416
:100A0000B1128FEF0E94B1128FEF0E94B1128FEFDF
:100A10000E94B1128EE591E0189FB001199F700DF0
:100A2000112480E090E050E2A8E0B8E2FB01E80F7A
:100A3000F91FE75EFE4FE08128E030E040E8FE2F3E
:100A4000F42319F0ABB9BBB902C01BB85BB946952A
:100A500021503109A1F701968D3521E0920731F738
:100A60001BB880E790E038E028E23BB92BB901974A
:100A7000E1F71BB880E093E020E21BB82BB90197A7
:100A8000E1F71BB88FEF0E94B1128FEF0E94B112F5
:100A90000E94C5120E948C1580E18BB91BB8DF91B2
:100AA000CF911F91FF90EF90DF90CF90BF90AF90CC
:100AB0009F908F900895CF92DF92EF92FF920F93C5
:100AC0001F93CF93DF93499B35C00CE011E0F801F1
:100AD00081918F3F59F181E1C82E81E0D82E99E1B3
:100AE000E92E91E0F92EC0E0DFEFF80160816F3F61
:100AF00029F0F60140818C2F0E943F04F801D19328
:100B00008F01F601D1936F01F7011282CF5FF2EAF4
:100B1000EF1AFEEFFF0AC43041F71092100189E18D
:100B200091E09093A3068093A20604C081E0E03197
:100B3000F80771F6DF91CF911F910F91FF90EF9021
:100B4000DF90CF9008958091910690919206803920
:100B50009C40C0F488E08BB98091910690919206F8
:100B600028E238E0803140E1940730F4499B0AC024
:100B70002BB93BB90196F6CF80E99CE090939206A1
:100B8000809391060895499B6EC090911001292F82
:100B900030E04EE551E0249FF001259FF00D349F99
:100BA000F00D1124E75EFE4F82818D3A09F042C0BC
:100BB00080911801811131C080919406F901E45FA0
:100BC000FE4F8083F901EF5EFE4F40919F064695F0
:100BD00046954083282F2D7F2D3011F48E5F01C064
:100BE0008F5F8F7080939406933029F40E94A30541
:100BF0000E945B051CC09F5F909310014EE551E081
:100C0000949F9001959F300D1124C901875E9E4FDE
:100C10009093A3068093A2060DC080910A01809351
:100C20009406109218018F30F1F40E94A30581E020
:100C30008093A006209110018EE591E0289FF0019D
:100C4000299FF00D1124E75EFE4F8281863959F409
:100C500087818575880F90859575892B80930A010A
:100C600081E080931801089529E131E044E080E0BB
:100C700090E0F901E80FF91F108201968E3551E0DE
:100C80009507B9F74150225A3E4F4111F0CF8FEFEF
:100C90008093110180930C018093120180930D01C8
:100CA0008093130180930E018093140180930F01B0
:100CB0000895CF93C82F8FEF9FEF909301018093FA
:100CC00000010E9472135C98499903C00E94280396
:100CD0004CC089E191E09093DD068093DC060E9490
:100CE000CF14811144C00E94411162E085E20E944C
:100CF0001D118EE091E00E94211264E086E10E94C5
:100D00001D118091D506813019F48FEF90E004C059
:100D1000823029F480EF90E00E94211222C08330BB
:100D200019F481EE90E0F8CF843019F482ED90E070
:100D3000F3CF853019F483EC90E0EECF863019F4D0
:100D400084EB90E0E9CF873019F485EA90E0E4CFB6
:100D50008EE990E00E9421128091D50690E00E94D9
:100D6000E7111092CE064999FECF80E0B0C0CC23A7
:100D7000D9F00E94411162E080E00E941D11809133
:100D8000E006823019F487E291E002C088E191E048
:100D90000E9421125C982FEB85E692E5215080405D
:100DA0009040E1F700C000000E949315811143C0FC
:100DB0000E94411162E085E20E941D118EE091E0E7
:100DC0000E94211264E086E10E941D118091D506E7
:100DD000813019F48FEF90E004C0823029F480EF65
:100DE00090E00E94211222C0833019F481EE90E03D
:100DF000F8CF843019F482ED90E0F3CF853019F408
:100E000083EC90E0EECF863019F484EB90E0E9CFEC
:100E1000873019F485EA90E0E4CF8EE990E00E94F3
:100E200021128091D50690E00E94E7111092CE0623
:100E30004999FECF9ACF4091F6062091F006309165
:100E4000F106429FC001439F900D112481159047E8
:100E5000D0F485E08093D5060E94411162E085E2DE
:100E60000E941D118EE091E00E94211264E086E153
:100E70000E941D1183EC90E00E9421121092CE0678
:100E80004999FECF72CFCC23E1F064E080E00E946C
:100E90001D1187E990E00E9421128091E7068630BB
:100EA00019F48BE890E002C081E990E00E942112E1
:100EB0008FEB95E622E5815090402040E1F700C09D
:100EC00000005C980E9434060E946E1381E0CF916E
:100ED00008958F929F92AF92BF92CF92DF92EF923E
:100EE000FF920F931F93CF93DF936115710519F450
:100EF00080E090E055C17B01EC010E94411160E06F
:100F000080E00E941D110E940D1182E392E00E9478
:100F1000211260E080E60E941D118091E706863074
:100F200019F48BE890E002C081E990E00E94211260
:100F30000E940D1141E060E082E00E94920362E0B5
:100F400080E00E941D1181E090E00E943012670154
:100F5000570108E0A00EB11CF60181916F018032AB
:100F600011F00E94A710AC14BD04B1F7D093070193
:100F7000C09306012091E706F701828D938D2B30F7
:100F800091F44489558960E070E0BA0155274427FF
:100F9000A0E0B0E08A019B01082B192B2A2B3B2BE8
:100FA000C901B80103C0BC0180E090E06115710582
:100FB0008105910509F49CCFE4EAF6E011921192C3
:100FC0001192119216E0EC3CF107C1F76093A40670
:100FD0007093A5068093A6069093A70611E0663F3E
:100FE000FFEF7F0781059105A8F40E948016663FF8
:100FF0002FEF72078105910558F434E0139FF0013B
:101000001124EC55F94F60837183828393831F5FB2
:101010001A3028F38090EC069090ED06A090EE0632
:10102000B090EF068091000190910101019609F4C2
:1010300088C080E090E00E9417188FEF9FEFDC01DE
:101040008093D8069093D906A093DA06B093DB0676
:1010500080910001909101010E948618FC0120916D
:10106000E706828D938D2B3071F4C488D588E12CEE
:10107000F12C7601DD24CC24A0E0B0E0C82AD92AE6
:10108000EA2AFB2A03C06C01E12CF12C02E0C01A11
:10109000D108E108F108A091F606B0E0A701960199
:1010A0000E949B1A0091E3061091E4062091E50648
:1010B0003091E606600F711F821F931F0E942A1451
:1010C000E091DC06F091DD068DEC92E0ABEAB1E058
:1010D00080839183A283B383458156816781708524
:1010E0008185928584169506A606B70619F48C1795
:1010F0009D0731F04387548765877687908B878774
:1011000085829682A782B086D287C1878091D706D2
:1011100084838091A106818BA091F606B0E0A7019F
:1011200096010E949B1AC090E306D090E406E090DE
:10113000E506F090E6066C0D7D1D8E1D9F1D0E943C
:1011400081148092EC069092ED06A092EE06B09289
:10115000EF0610929206109291061092CD06109210
:101160009A06C1E0C093A00610929F0610929406C2
:10117000109210011092180189E191E09093A3065A
:101180008093A2065C9840E052E060E070E080E16D
:101190000E94BF130E943406C093CE0681E090E007
:1011A000DF91CF911F910F91FF90EF90DF90CF9043
:1011B000BF90AF909F908F900895CF92DF92EF9263
:1011C000FF920F931F93CF93DF93C090EC06D090C4
:1011D000ED06E090EE06F090EF0680910001909110
:1011E0000101019609F477C080E090E00E94171891
:1011F0008FEF9FEFDC018093D8069093D906A093E0
:10120000DA06B093DB0680910001909101010E9403
:101210008618FC012091E706828D938D2B3079F49E
:1012200024893589A90160E070E0BA015527442777
:10123000A0E0B0E0842B952BA62BB72B02C0A0E03A
:10124000B0E09C01AD012250310941095109A09142
:10125000F606B0E00E949B1A0091E3061091E406A6
:101260002091E5063091E606600F711F821F931FE3
:101270000E942A14E091DC06F091DD068FEF9FEFCB
:10128000DC018093D8069093D906A093DA06B09338
:10129000DB0683859485A585B6858093EC069093BF
:1012A000ED06A093EE06B093EF06C785D089CE0178
:1012B0000E9486188C010E94BF03882361F0B80148
:1012C000CE01DF91CF911F910F91FF90EF90DF90B2
:1012D000CF900C946907C092EC06D092ED06E09294
:1012E000EE06F092EF06DF91CF911F910F91FF90E4
:1012F000EF90DF90CF9008955E9A2D9A5F9A0895AF
:10130000CF92DF92EF92FF920F931F93CF93DF93D1
:101310008091000190910101019611F4DFEA5BC018
:1013200080E090E00E94171889E191E09093DD063B
:101330008093DC060E9434061092D8061092D906DB
:101340001092DA061092DB06809100019091010163
:101350000E948618FC012091E706828D938D2B3028
:1013600079F424893589A90160E070E0BA01552734
:101370004427A0E0B0E0482B592B6A2B7B2B03C0FD
:10138000AC0160E070E0A091F6069A01AB0122503A
:10139000310941095109B0E00E949B1A0091E3060E
:1013A0001091E4062091E5063091E606600F711F6A
:1013B000821F931F0E942A14E091DC06F091DD0643
:1013C00080819181A281B3818D3C9240AB4AB14032
:1013D00009F0A4CFD1890E94411160E080E00E9411
:1013E0001D110E940D1185EA91E00E9421120E94B8
:1013F0000D1145E064E083E00E94920362E080E02A
:101400000E941D118BEB91E00E9421128D2F90E024
:101410000E94E711ED2EFD2E0E947C09FE1481F042
:1014200062E080E00E941D118BEB91E00E9421128E
:101430008F2D90E00E94E7118AE690E00E94211231
:10144000499BC0C04F9B13C04F99FECF8FEB9AE7CB
:1014500020E1815090402040E1F700C00000CFEF34
:10146000CF0DC093A1068C2F0E94991001C0CF2DE3
:101470001D9B11C01D99FECF8FEB9AE720E1815093
:1014800090402040E1F700C00000CF5FC093A1066C
:101490008C2F0E949910EF2C4E9902C0FC2EBCCFCD
:1014A0004E99FECF8FEB9AE720E18150904020408B
:1014B000E1F700C00000DC1709F484C0C093A10666
:1014C0008C2F0E9499105C988091000190910101ED
:1014D000019609F477C080E090E00E94171889E136
:1014E00091E09093DD068093DC060E943406109212
:1014F000D8061092D9061092DA061092DB06809177
:101500000001909101010E948618FC012091E706DC
:10151000828D938D2B3071F4C488D588E12CF12C09
:101520007601DD24CC24A0E0B0E0C82AD92AEA2A3A
:10153000FB2A03C06C01E12CF12C82E0C81AD1080F
:10154000E108F108A091F606B0E0A70196010E941B
:101550009B1A0091E3061091E4062091E506309174
:10156000E606600F711F821F931F0E942A14E091EC
:10157000DC06F091DD0680819181A281B3818D3CF2
:101580009240AB4AB140F1F4C18BA091F606B0E0B5
:10159000A70196010E949B1AC090E306D090E40632
:1015A000E090E506F090E6066C0D7D1D8E1D9F1DFA
:1015B000DF91CF911F910F91FF90EF90DF90CF902F
:1015C0000C948114DF91CF911F910F91FF90EF90B8
:1015D000DF90CF900895CF92DF92EF92FF920F931A
:1015E0001F93CF93DF930E94411160E080E00E943F
:1015F0001D110E940D118FE891E00E9421120E949E
:101600000D1144E065E083E00E94920363E080E016
:101610000E941D118BEB91E00E9421128091D70650
:1016200090E00E94E711F090D706EF2CCAE0D1E0DD
:101630000E947C098091D706E81699F063E080E06B
:101640000E941D118BEB91E00E9421128091D70620
:1016500090E00E94E71188E690E00E942112E0905D
:10166000D706499BBFC04F9B14C04F99FECF2FEBAD
:101670008AE790E1215080409040E1F700C00000EF
:101680008091D706815019F08093D70602C0C0938D
:10169000D7061D9B15C01D99FECF2FEB8AE790E161
:1016A000215080409040E1F700C000008091D706B3
:1016B0008F5F8B3018F48093D70602C0D093D70683
:1016C0004E9BB6CF4E99FECF2FEB8AE790E121508B
:1016D00080409040E1F700C000008091D706F816E6
:1016E00009F480C08091000190910101019609F4F4
:1016F00079C080E090E00E94171889E191E0909312
:10170000DD068093DC060E9434061092D806109203
:10171000D9061092DA061092DB06809100019091B2
:1017200001010E948618FC012091E706828D938DAD
:101730002B3071F4C488D588E12CF12C7601DD249E
:10174000CC24A0E0B0E0C82AD92AEA2AFB2A03C0A8
:101750006C01E12CF12C82E0C81AD108E108F108F3
:10176000A091F606B0E0A70196010E949B1A009195
:10177000E3061091E4062091E5063091E606600F3D
:10178000711F821F931F0E942A14E091DC06F091C2
:10179000DD0680819181A281B3818D3C9240AB4A6C
:1017A000B14001F58091D7068483A091F606B0E0A0
:1017B000A70196010E949B1AC090E306D090E40610
:1017C000E090E506F090E6066C0D7D1D8E1D9F1DD8
:1017D000DF91CF911F910F91FF90EF90DF90CF900D
:1017E0000C948114DF91CF911F910F91FF90EF9096
:1017F000DF90CF900895CF93DF930E94411160E076
:1018000080E00E941D110E940D118CE192E00E9467
:1018100021120E940D1145E064E083E00E949203D2
:1018200062E080E00E941D110E94051180EF91E0AE
:101830000E9421120E94051163E080E00E941D11A8
:101840008AED91E00E942112C1E00E947C094F9B29
:1018500022C04F99FECF2FEB8AE790E121508040C4
:101860009040E1F700C00000C130A1F462E080E0E8
:101870000E941D1180EF91E00E9421120E9405112B
:1018800063E080E00E941D118AED91E00E94211228
:101890000E940511C2E01D9B2CC01D99FECF2FEBAD
:1018A0008AE790E1215080409040E1F700C00000BD
:1018B000DFEFDC0F01F1D13011F40E94051162E07D
:1018C00080E00E941D1180EF91E00E942112C25021
:1018D000C23010F40E94051163E080E00E941D11E7
:1018E0008AED91E00E942112D23031F40E9405115C
:1018F00003C0DC2F01C0D1E04E9902C0CD2FA5CF8F
:101900004E99FECF2FEB8AE790E121508040904026
:10191000E1F700C00000D13021F4DF91CF910C94A9
:10192000EB0AD23021F4DF91CF910C948009DF9142
:10193000CF910895AF92BF92CF92DF92EF92FF9234
:101940000F931F93CF93DF93CDB7DEB728970FB6D2
:10195000F894DEBF0FBECDBF1092090110920801AE
:1019600089E191E09093DD068093DC0685ED93E0BC
:1019700090939E0680939D068FEF9FEFDC018093EE
:10198000D8069093D906A093DA06B093DB060E949E
:1019900034060E940D1160E080E00E941D1181E775
:1019A00091E00E9421120E940D1145E064E083E065
:1019B0000E94920311E0612F80E00E941D1186E0D9
:1019C00092E00E9421121F5F1630A9F763E080E0C9
:1019D0000E941D1182E691E00E94211200E010E0B9
:1019E000C8010E9486187C01009799F0FC01808153
:1019F00081110FC08091080190910901892BB1F5E7
:101A000063E080E00E941D118CE491E00E942112AD
:101A100054C1C7010E94BF03811105C0C7010E94C4
:101A2000D5038823A1F0E0919D06F0919E06809158
:101A3000080190910901E80FF91F008380910801C6
:101A400090910901019690930901809308010F5F1D
:101A50001F4F8091080190910901883C910554F62F
:101A60000039F1E01F0709F0BBCFC4CF63E080E08D
:101A70000E941D1186E391E00E94211280910801CD
:101A80009091090102971CF0C12CD12C5DC04091AE
:101A90000801509109016091060170910701E091E0
:101AA0009D06F0919E0600E010E080E090E05FC0AF
:101AB000E0919D06F0919E06E00FF11F808190E07D
:101AC0000E94861848E050E0BC01CE0101960E94B9
:101AD000C81A780121E0E21AF108E0919D06F09120
:101AE0009E06EE0DFF1D808190E00E94861848E062
:101AF00050E0BC01CE0101960E94BB1A97FF15C0B1
:101B000080919D0690919E06FC01E00FF11F2081BF
:101B1000DC01AE0DBF1D8C91808380919D0690915C
:101B20009E06FC01EE0DFF1D20830F5F1F4F80916D
:101B30000801909109018C199D09081719070CF4E7
:101B4000B7CF8FEFC81AD80A809108019091090188
:101B50000197C816D9060CF09ACF01E010E0E7CF44
:101B6000219130E02617370709F48C01019684177C
:101B70009507B4F3EE24EA94FE2C0E947C09499B5D
:101B80009CC04F9B16C04F99FECF9FEBEAE7F0E158
:101B90009150E040F040E1F700C000000F5F1F4FA0
:101BA00080910801909109010817190711F400E0CC
:101BB00010E01D9B15C01D99FECF2FEB8AE790E129
:101BC000215080409040E1F700C000000150110911
:101BD00017FF06C000910801109109010150110979
:101BE0004E9B2DC04E99FECFEFEBFAE720E1E1507E
:101BF000F0402040E1F700C00000E0919D06F09128
:101C00009E06E00FF11F808190E00E9486187C0103
:101C10000E94D503882331F0C7010E9417180E9443
:101C20009A0C4BC080919D0690919E06FC01E00F9E
:101C3000F11F8081B70190E00E9469073EC00E1538
:101C40001F0509F49ACFE0919D06F0919E06E00FE2
:101C5000F11F808190E00E9486187C0163E080E0A3
:101C60000E941D11C7010E94D503882319F086E048
:101C700090E002C081E090E00E94301267015701BD
:101C800088E0A80EB11CE12CF60181916F01803231
:101C900019F00E94A710E394AC14BD04A9F7F12C2D
:101CA00020E1E216F1043CF480E20E94A710FFEF6D
:101CB000EF1AFF0AF5CF780160CF28960FB6F89497
:101CC000DEBF0FBECDBFDF91CF911F910F91FF906F
:101CD000EF90DF90CF90BF90AF900895CF92DF92BA
:101CE000EF92FF920F931F93CF93DF9389E191E0DF
:101CF0009093DD068093DC068FEF9FEFDC018093ED
:101D0000D8069093D906A093DA06B093DB0680E05C
:101D100090E00E9417188FEF9FEF9093010180933E
:101D20000001CFEFDFEF00E010E0C8010E9486184D
:101D30007C01009709F48FC0FC018081882309F49D
:101D400091C0C7010E94BF03882329F0CF3FFFEF56
:101D5000DF0709F4E8014BE050E060E770E0C701FD
:101D60000E94AD1A892B09F076C0109301010093EF
:101D700000012091E706F701828D938D2B3079F4D5
:101D800024893589A90160E070E0BA01552744270C
:101D9000A0E0B0E0482B592B6A2B7B2B03C0AC0191
:101DA00060E070E0A091F6069A01AB012250310983
:101DB00041095109B0E00E949B1AC090E306D090FF
:101DC000E406E090E506F090E6066C0D7D1D8E1DA4
:101DD0009F1D0E942A14E090DC06F090DD06F701BA
:101DE00080819181A281B3818D3C9240AB4AB14008
:101DF00051F5F70184818093D70681898093A106EC
:101E00000E9499105C98F70185819681A781B08521
:101E10008093EC069093ED06A093EE06B093EF0648
:101E2000D184F2848D2D9F2D0E948618009739F061
:101E30000E94BF03882319F0CD2DDF2D13C080E051
:101E400090E00E94171880E090E00E941718CF3FA2
:101E5000FFEFDF07E1F40F5F1F4F003921E01207AA
:101E600009F063CFCF3F8FEFD80789F4F8940E9431
:101E70009A0C499B1BC08091CE06882331F080913B
:101E80006E00816080936E00E89A78940FC0CE0156
:101E90000E948618BC01CE01DF91CF911F910F9156
:101EA000FF90EF90DF90CF900C946907DF91CF9176
:101EB0001F910F91FF90EF90DF90CF9008950E94B7
:101EC0007C09499912C08FEF90E049996EC0019743
:101ED000E1F780916E008E7F80936E00E8981092FB
:101EE000CE061092A0060C942803309B42C04E9957
:101EF00004C04F9902C01D9B3CC04E9B10C084E69D
:101F000090E021E04E9B20E00197E1F7222309F4C5
:101F10004CC04E99FECFF8940E949A0C27C04F9B5C
:101F200015C024E630E081E099B1990F990B89231F
:101F300021503109C9F7882309F437C04F99FECFE2
:101F4000F8940E94FB0B499B30C022C01D9B2DC002
:101F500084E690E021E01D9B20E00197E1F7222339
:101F600021F11D99FECFF8940E94DD08499912C015
:101F70001CC08091CE06811118C08FEF90E0499B64
:101F800014C00197E1F7F89481E00E94590681118D
:101F90000E946E0E8091CE06882331F080916E00F3
:101FA000816080936E00E89A7894089596E09A95FF
:101FB000F1F708950895349BFECFA89408950895ED
:101FC0003D983C984598449888279927359B0895D3
:101FD000349B089581E0089581E00895349BEBDF00
:101FE0003D9AE4DF2AD0089581E008953C9ADEDF2F
:101FF0003D98DCDF3C98DADF349BDDDF3D9AD6DFAD
:102000001CD0089581E008958F938F918F93349B16
:10201000D2DF3D9ACBDF11D0882311F404D0F5CF65
:102020000F90089508953C9A3D9AC0DF3C98BEDF1A
:10203000349BC1DF3D98BADF08950894881F01C022
:10204000880FB9F03C9A00000000000018F400006E
:102050003D9802C03D9A00C0A9DF3C98A8940000BA
:1020600000000000349BA7DF12F4882712C09EDF17
:10207000E7CF3C9A000000003D9898DF9927882719
:102080003C98A8940000349B96DF7AF3359B81E05E
:102090008DDF000000003C9A089581E0089571E012
:1020A0003C9A3D9800000000000080DF3C987EDFF5
:1020B000A894000000000000349B7DDFB2F08894FB
:1020C00035990894771F60F73C9A803011F03D985D
:1020D00001C03D9A00000000000068DF3C98A89411
:1020E00000000000349B67DF61DF000000003C9AC5
:1020F000872F9927089580E20895CF93C82F88E706
:102100000E94EE0F80E00E941D108C2F0E941D1077
:10211000CF910C941310CF93C82F88E70E94EE0F35
:1021200080E40E941D108C2F0E941D10CF910C94F2
:102130001310CF93C82F81E890E00E947D108C2F60
:1021400090E00E947D10C093D206CF9108950F9326
:102150001F93CF93DF93C82F88E70E94EE0F80E490
:102160000E941D1085E0C89FE001112400E010E0EE
:10217000C05AD109FE01E00FF11FEE5CFB4FE49164
:102180008091D0068111E0958091D306813011F0C5
:1021900080E001C080E891E02091D106213009F073
:1021A00090E0E92B8E2B0E941D100F5F1F4F053012
:1021B000110501F781E09091D006913009F080E09F
:1021C000982F91958091D306813011F020E001C0C5
:1021D00020E881E03091D106313009F080E0892B90
:1021E000822B0E941D10DF91CF911F910F910C94B3
:1021F0001310CF93DF93EC018991882319F00E948B
:10220000A710FACFDF91CF91089581E09091D00689
:10221000911180E08093D006089581E09091D306DB
:10222000911180E08093D306089581E09091D106CA
:10223000911180E08093D1060895CF93DF93C82F4A
:10224000862F90E080559F4F0E947D10C695C695C1
:10225000C69588E0C89FE001112420919306CE0125
:1022600088709927820F911D0E947D10CE0124E075
:10227000959587952A95E1F74096DF91CF910C943B
:102280007D100F931F93CF93C0E06C2F80E00E94CE
:102290001D1104E810E080E00E948B10015011092C
:1022A000D1F7CF5FC83089F7CF911F910F910C9470
:1022B000131081EA90E00E947D1088EC90E00E946B
:1022C0007D100C9441110E94E00F8EEA90E00E9474
:1022D0007D1086EA90E00E947D1085ED90E00E94DE
:1022E0007D1080E890E00E947D1088EA90E00E94D6
:1022F0007D108FE390E00E947D1083ED90E00E94BE
:102300007D1080E090E00E947D1080E490E00E94CB
:102310007D108DE890E00E947D1084E190E00E94A5
:102320007D1080E290E00E947D1080E090E00E94AD
:102330007D1080EA90E00E947D1088EC90E00E9481
:102340007D108AED90E00E947D1082E190E00E9475
:102350007D1081E890E00E947D108FEC90E00E945B
:102360007D1089ED90E00E947D1081EF90E00E9449
:102370007D108BED90E00E947D1080E490E00E9443
:102380007D1084EA90E00E947D1086EA90E00E9431
:102390007D108FEA90E00E947D108FEC8093D20632
:1023A0008093A10682E0809393061092D00610924B
:1023B000D3061092D1060C94591180EA90E00E9445
:1023C0007D1080EC90E00E947D100C944111CF9321
:1023D000DF93CDB7DEB72A970FB6F894DEBF0FBEF6
:1023E000CDBF4AE0BE016F5F7F4F0E94DC1ACE0175
:1023F00001960E94F9102A960FB6F894DEBF0FBE20
:10240000CDBFDF91CF910895CF93DF93CDB7DEB7E6
:102410002A970FB6F894DEBF0FBECDBF2AE0AE01FB
:102420004F5F5F4F0E94E71ACE0101960E94F9109C
:102430002A960FB6F894DEBF0FBECDBFDF91CF91C5
:102440000895CF93DF93FC018491EF0121968823B7
:1024500021F00E94A710FE01F7CFDF91CF910895E0
:10246000EF92FF920F931F93CF93DF937C018CE049
:102470008E9D80018F9D100D1124C0E0D0E08FEF64
:10248000E816F10439F0FE01E00FF11FE252FC4FB3
:10249000E49101C0E0E08091D0068111E095809147
:1024A000D306813011F080E001C080E891E02091F6
:1024B000D106213009F090E0E92B8E2B0E948B1081
:1024C0002196CC30D105D9F681E09091D00691309B
:1024D00009F080E0982F91958091D306813011F01A
:1024E00020E001C020E881E03091D106313009F0D0
:1024F00080E0892B822BDF91CF911F910F91FF906C
:10250000EF900C948B10EF92FF920F931F93CF9349
:10251000E12CF12CC0E06C2F89E10E941D1100E03C
:1025200010E0F801EE0DFF1DE459FD4F84910E946B
:102530008B100F5F1F4F0A34110599F7CF5F8AE4A4
:10254000E80EF11CC53039F7CF911F910F91FF9024
:10255000EF900895549A539A559A50981092D40631
:10256000089528E030E090E840E258E068E2782FF3
:10257000792319F05BB96BB902C01BB84BB99695BA
:1025800021503109A1F71BB80895CF93DF931F9213
:10259000CDB7DEB788E08BB9198280E028E238E059
:1025A0009981983051F02BB999B1880F9170892B8E
:1025B0003BB999819F5F9983F3CF0F90DF91CF91C2
:1025C000089588E38BB988E18BB9089528E100006C
:1025D0002A95E9F70197D1F708950895DF92EF92D0
:1025E000FF920F931F93CF93DF93082FC8E0D0E0A3
:1025F00010E880E2F82E98E0E92E28E2D22E802F13
:10260000812339F0EBB881E090E00E94E612DBB85C
:1026100006C01BB881E090E00E94E612FBB8169558
:10262000219769F781E090E00E94E6121BB8DF91E4
:10263000CF911F910F91FF90EF90DF9008959091AF
:10264000D406911103C00E94EE1202C00E94B11282
:1026500080E00895FF920F931F93CF93DF931F9213
:10266000CDB7DEB788E08BB981E090E00E94E6123A
:10267000198210E008E288E0F82E8981883091F014
:102680000BB981E090E00E94E61289B1110F8170D0
:10269000182BFBB881E090E00E94E61289818F5FE1
:1026A0008983EBCF812F0F90DF91CF911F910F91F5
:1026B000FF9008958091D406811102C00C942A13D2
:1026C0000C94C51288E38BB981E090E00E94E61279
:1026D00088E18BB981E090E00C94E61281E0809370
:1026E000D40608951092D40608950E94C51287FD5D
:1026F000FCCF0895CF92DF92EF92FF92CF93C82F35
:102700006A017B010090D60604C0CC0CDD1CEE1CD7
:10271000FF1C0A94D2F78FEF0E94B1128C2F8064B5
:102720000E94B1128F2D0E94B1128E2D0E94B11203
:102730008D2D0E94B1128C2D0E94B11285E90E944C
:10274000B1128FEF0E94B1120E9475138093E106BF
:1027500081508E3FC8F3CF91FF90EF90DF90CF90E4
:102760000895AB01BC011092DF0681E10E947A134B
:102770000E94C5128093E2068E3FD1F70895CF9252
:10278000DF92EF92FF92CF93DF93C82F6A017B0114
:102790008091DE06811113C08FEE8C0F823040F0E5
:1027A00088EE8C0F823020F080EE8C0F823038F46F
:1027B00089E0CC0CDD1CEE1CFF1C8A95D1F78FEF55
:1027C0000E941F138C2F80640E941F138F2D0E9464
:1027D0001F138E2D0E941F138D2D0E941F138C2DF1
:1027E0000E941F13C83011F487E801C085E90E94D8
:1027F0001F13F12C0E945A13D82F8F3F21F4FA9403
:10280000F110F8CF1DC081111BC0CA33C9F40E945A
:102810005A131092D60686FF05C081E08093DE062B
:1028200082E006C01092DE0689E08093D60681E041
:102830008093E0060E945A130E945A130E945A1372
:102840000E945A138D2FDF91CF91FF90EF90DF9070
:10285000CF900895CF92DF92EF92FF92CF93DF93C4
:10286000C090D806D090D906E090DA06F090DB064A
:10287000C616D706E806F906E1F16B017C01609304
:10288000D8067093D9068093DA069093DB065C989D
:102890008FEF0E941F138FEF0E941F13B701A60135
:1028A00081E10E94BF13811125C0C0E0D0E00E94E9
:1028B0005A138E3F29F02197D1F75C9A80E01AC015
:1028C000E12CF12CC091DC06D091DD06CE0DDF1D90
:1028D0000E945A1388838FEFE81AF80AE11482E005
:1028E000F80681F70E945A130E945A130E945A1345
:1028F0005C9A81E0DF91CF91FF90EF90DF90CF90D5
:102900000895CF93DF93AB01BC0188E10E94BF1310
:1029100081113DC05C988EEF0E941F13C0E0D0E093
:10292000E091DC06F091DD06EC0FFD1F80810E9436
:102930001F132196C11582E0D80791F78FEF0E94EF
:102940001F138FEF0E941F130E945A13982F9F711D
:10295000953079F4C0E0D0E00E945A13811103C091
:102960002196D1F706C05C9A8FEF0E941F135C98E6
:1029700008C05C9A0CC09E012F5F3F4F2196C9F39F
:10298000E9010E945A138823B1F35C9A81E0DF9138
:10299000CF910895AB01BC0180E10C94BF13CF929D
:1029A000DF92EF92FF920F931F93CF93DF931092DA
:1029B000D50685E08093D7060E94AA120E94721362
:1029C00089B1C82FC27081FF98C080E185B95C9A37
:1029D0008FE097E2A0E0B0E08093D8069093D9060C
:1029E000A093DA06B093DB06C4E60E946213C150DE
:1029F000E1F75C98CCE08FEF0E941F13C150D9F72C
:102A000000E018E040E050E0BA0180E00E94BF130F
:102A10000150110931F415B85C9A81E08093D50614
:102A20006CC0813079F7CCE08FEF0E941F13C1504A
:102A3000D9F7C1E0D2E04AEA51E060E070E088E016
:102A40000E94BF138A3A49F481E08093E006C12CCA
:102A5000D12CE12C80E4F82E09C08130A9F3219714
:102A600051F71092E006C12CD12C7601CCE08FEF0B
:102A70000E941F13C150D9F701E012E040E050E07E
:102A8000BA0187E30E94BF13B701A60189E20E9441
:102A9000BF130150110931F482E08093D50615B8B7
:102AA0005C9A2BC08111EACF1092DE0689E08093F8
:102AB000D6068091E006813081F040E050E0BA0116
:102AC0008BE30E94BF1360E072E080E090E00E9420
:102AD000CA1415B85C9AC1E010C0C5E6D0E08FEF0B
:102AE0000E941F1340E050E0BA018AE30E94BF1326
:102AF000219719F38111F3CFE0CF8C2FDF91CF9184
:102B00001F910F91FF90EF90DF90CF90089580E19B
:102B100085B9089515B808950E94C512499B02C051
:102B20008F3FD1F708958F929F92AF92BF92CF922D
:102B3000DF92EF92FF921F93CF93DF9360E070E0FC
:102B4000CB010E942A14E091DC06F091DD06808121
:102B50008D7F893E51F1DF01A250BE4F8D919C9136
:102B600085359A4A11F086E014C0E254FE4F848104
:102B70008093E70660857185828593850E942A147B
:102B8000E091DC06F091DD0680818D7F893E29F0A1
:102B900083E08093D50680E0A7C08091E7068B3064
:102BA00021F0863011F084E0F4CFC091DC06D091A2
:102BB000DD06438554855093F1064093F006158554
:102BC0001093F60686859785C48CD58CE68CF78C99
:102BD000C80ED91EE11CF11CC092F206D092F30679
:102BE000E092F406F092F5068091E706863019F43B
:102BF000A689B78902C0ACA1BDA1208930E02A9F77
:102C0000B0012B9F700D3A9F700D112446015701A2
:102C1000860E971EA11CB11C8092E3069092E406DA
:102C2000A092E506B092E6068630D9F08CA59DA567
:102C3000AEA5BFA59C01AD01225031094109510942
:102C4000A12FB0E00E949B1A860E971EA81EB91EE7
:102C50008092E8069092E906A092EA06B092EB060E
:102C600024C00E948C1AC60ED71EE81EF91EC09200
:102C7000E806D092E906E092EA06F092EB06818936
:102C8000928935E0880F991F3A95E1F7BA010E94C1
:102C9000561AC60ED71EE11CF11CC092E306D09254
:102CA000E406E092E506F092E606812F90E020E04F
:102CB00031E0320F8130910521F096958795232FD1
:102CC000F7CF2093F7068091E8069091E906A0914E
:102CD000EA06B091EB068093EC069093ED06A09384
:102CE000EE06B093EF0681E0DF91CF911F91FF9048
:102CF000EF90DF90CF90BF90AF909F908F9008950E
:102D00004F925F926F927F928F929F92AF92BF92FB
:102D1000CF92DF92EF92FF92CF932091E706263079
:102D200039F488248A94982CA12CB12C21E007C076
:102D300088248A94982CA82C2FE0B22E22E004C07C
:102D4000660F771F881F991F2A95D2F72091F006EA
:102D50003091F10640E050E00E946A1A6B017C015C
:102D60008091F2069091F306A091F406B091F506D9
:102D700029013A01480E591E6A1E7B1ECAE0C30192
:102D8000B2010E942A14882311F0C150C1F780912A
:102D9000DC069091DD06FC01EC0DFD1D808191812A
:102DA000A281B381BC01CD01682179218A219B21B7
:102DB000CF91FF90EF90DF90CF90BF90AF909F901A
:102DC0008F907F906F905F904F9008954F925F9299
:102DD0006F927F928F929F92AF92BF92CF92DF922B
:102DE000EF92FF92CF9388EEC82E83E0D82EE12C8D
:102DF000F12CC701B6010E9480166115710581058D
:102E0000910591F030EAC31636E8D30631E0E306C7
:102E1000F10431F02FEFC21AD20AE20AF20AE9CF26
:102E200060E070E0CB0151C040EAC41646E8D40629
:102E300041E0E406F10409F448C08091E7068630D9
:102E400011F481E001C082E0A701960104C0220FC5
:102E5000331F441F551F8A95D2F7CA01B90120912B
:102E6000F0063091F10640E050E00E946A1A2B0112
:102E70003C018091F2069091F306A091F406B09186
:102E8000F50649015A01880E991EAA1EBB1ECAE00A
:102E9000C501B4010E942A14882311F0C150C1F762
:102EA0008091DC069091DD06FC01E40DF51D8FEFAD
:102EB00090E0A0E0B0E080839183A283B383C5015A
:102EC000B4010E948114C701B601CF91FF90EF9029
:102ED000DF90CF90BF90AF909F908F907F906F903A
:102EE0005F904F9008958F929F92AF92BF92CF9232
:102EF000DF92EF92FF920F931F93CF93DF93EC013A
:102F000055E0CC0FDD1F5A95E1F78E01012F1127F7
:102F100006952091F606622F70E0C8010E94561AAD
:102F20007B018091EC069091ED06A091EE06B091A8
:102F3000EF06672B09F44EC03091E706363071F486
:102F40008090E8069090E906A090EA06B090EB0623
:102F500088159905AA05BB0509F45AC08090E306B7
:102F60009090E406A090E506B090E606BC01CD0185
:102F7000681979098A099B0930E040E050E00E9415
:102F80006A1ACA01B9016E5F7F4F8F4F9F4FC12CE4
:102F9000D12C0E9480162FEFC21AD20ACE14DF0461
:102FA000C1F79B01AC012250310941095109A0919F
:102FB000F606B0E00E949B1A8090E3069090E4062B
:102FC000A090E506B090E606DC01CB01880D991DC6
:102FD000AA1DBB1D9801322F2227330FC21BD30B12
:102FE0004091F6064E9D90014F9D300D1124021B1D
:102FF000130BBC01CD01600F711F811D911D0E943B
:103000002A148091DC069091DD068C0F9D1F02C072
:1030100080E090E0DF91CF911F910F91FF90EF90B2
:10302000DF90CF90BF90AF909F908F9008950F93B7
:103030001F93FC01892B49F48091E8069091E906E1
:10304000A091EA06B091EB0639C09385892F807173
:1030500094FF3DC02091E706828D938D2B3079F44B
:1030600024893589A90160E070E0BA015527442719
:10307000A0E0B0E0842B952BA62BB72B02C0A0E0DC
:10308000B0E00097A105B105B9F29C01AD01225055
:10309000310941095109A091F606B0E00E949B1A3E
:1030A0000091E3061091E4062091E5063091E606D2
:1030B000DC01CB01800F911FA21FB31F8093EC0690
:1030C0009093ED06A093EE06B093EF0681E01F917A
:1030D0000F910895FC01892BB1F08081882399F02C
:1030E000853E89F08E3221F481818E3219F00BC039
:1030F000853049F083858E3131F08F3021F0883270
:1031000011F0CF01089580E090E008950E947317B8
:103110000C946A180000000000000000000000008D
:103120000000000008950000000000000000209151
:10313000D7062A95F1F70895AF93AFB7AF93BF9332
:103140002F93A091CD062091CC06A22BA8B9AAEA74
:10315000A6BD20E0E8DFA091CC06A8B9B091A006FA
:10316000BB2341F02093CD062F91BF91AF91AFBF0C
:10317000AF911895A8E2ABB9A9B1A170AA0F2A2FF7
:10318000A8E0ABB9A0919106B09192061196A093D8
:103190009106B0939206A03989F4BC3079F4A1E08D
:1031A000A093A006CF93C0E7A8E0B8E2BBB9B8E00F
:1031B000BBB9AA95D1F7CA95B9F7CF912093CD069F
:1031C0002F91BF91AF91AFBFAF9118952F932FB7AC
:1031D0002F9330995AC03F9330919A0626B12470AC
:1031E0002327E1F326B1247020939A0628E02A953C
:1031F000F1F700004F935F936F937F938F93EF935B
:10320000FF9360E0E091A206F091A3063DE541E066
:103210000DC050919A0676B174707527E1F376B1BE
:10322000747070939A067EE07A95F1F727E081E05A
:1032300079B17470D1F400007EE17A95F1F776B13E
:10324000747050919A0670939A06752776957695C4
:10325000880F872B2A9561F7853D09F461E060307E
:10326000C1F2819331504040A1F69F93AF93BF9339
:103270000E94C305BF91AF919F91FF91EF918F91F4
:103280007F916F915F914F913F912F912FBF2F9120
:10329000189581E00E943D038FEF80931501CBE8E4
:1032A0000E945F0F309B03C00E948A15F9CF0E94D5
:1032B000871583B18F7090910B01891759F1809315
:1032C0000B01883049F0843009F4E7C0823009F4FA
:1032D000E6C08130F9F4E5C082E090919F06890F45
:1032E000E82FE770E695F0E0E459FF4FE49180FFA6
:1032F000E295EF708E2F887009F0E86FE90FE53CDA
:1033000008F0D1C0E0939F0680919F068C3810F0A2
:10331000C0939F068091CE06882309F4C1CF809187
:10332000A006882309F4BCCFF894809194068F5F9F
:103330008F708093940620919F0626952695209362
:10334000CF0690E030E1239F800D911D11249093D2
:103350009C0680939B060090F70602C09695879581
:103360000A94E2F79093170180931601880F991F32
:10337000880F991FFC01EC55F94F80819181A28142
:10338000B3818093950690939606A0939706B09389
:103390009806809115012817B9F02093150164E073
:1033A0008CE00E941D1187E891E00E94211280911B
:1033B000CF068A3020F483E091E00E94F9108091DA
:1033C000CF0690E00E94E7118091940690910C0145
:1033D000981306C0209111019091CF062917F1F0A2
:1033E00090910D01891306C0209112019091CF0692
:1033F0002917A1F090910E01891306C020911301A5
:103400009091CF06291751F090910F01891308C0B0
:10341000909114018091CF06981302C00E945B0521
:103420008091950690919606A0919706B091980686
:103430000297A109B109AC01BD010090F70604C0D3
:10344000440F551F661F771F0A94D2F78091E30639
:103450009091E406A091E506B091E606840F951FD1
:10346000A61FB71F2091F60630E021503109409188
:103470009B0650919C0624233523BC01CD01620F8D
:10348000731F811D911D0E94B1131092920610921C
:1034900091061092A006789403CF84E01ECF86E0B8
:1034A0001CCF80E01ACF10929F062ECFAA1BBB1B09
:1034B00051E107C0AA1FBB1FA617B70710F0A61B34
:1034C000B70B881F991F5A95A9F780959095BC0155
:1034D000CD010895A1E21A2EAA1BBB1BFD010DC050
:1034E000AA1FBB1FEE1FFF1FA217B307E407F507B4
:1034F00020F0A21BB30BE40BF50B661F771F881F90
:10350000991F1A9469F760957095809590959B0125
:10351000AC01BD01CF010895A29FB001B39FC001CE
:10352000A39F700D811D1124911DB29F700D811DEF
:103530001124911D08950E948C1AA59F900DB49F8F
:10354000900DA49F800D911D11240895FB01DC01B5
:1035500005900D920020E1F70895FB01DC01415038
:10356000504030F08D910590801919F40020B9F782
:10357000881B990B0895FB01DC0104C08D9101901B
:10358000801921F441505040C8F7881B990B0895C9
:10359000DC01FB014150504058F049F001900D9280
:1035A0000020C1F7E61BF70B3197CF0108951C925D
:1035B00001900020E9F7F6CFBB274A3031F4992378
:1035C00022F4BDE2909581959F4F0C94191BBB2767
:1035D0002A3051F4992342F4BDE29095809570957C
:1035E00061957F4F8F4F9F4F0C94F71ABB27FA01BD
:1035F000A62F6217710581059105330B30FB66F02C
:10360000AA27660F771F881F991FAA1FA21710F0FD
:10361000A21B63953850A9F7A05DAA3308F0A95DF5
:10362000A19336F7B111B1931082CA010C94321BE9
:10363000BB27FB015527AA27880F991FAA1FA4178C
:1036400010F0A41B83955051B9F7A05DAA3308F080
:10365000A95DA193009779F7B111B1931192CB01B4
:103660000C94321BDC01FC01672F71917723E1F789
:10367000329704C07C916D9370836291AE17BF073F
:08368000C8F30895F894FFCF90
:06368800FFFFFE20000020
:00000001FF
