:100000000C940C030C9458190C9429030C94290398
:100010000C9429030C9429030C9429030C942903B0
:100020000C9429030C9429030C9429030C942903A0
:100030000C9429030C9429030C9429030C94290390
:100040000C940E190C9429030C9429030C94290385
:100050000C9429030C9429030C9429030C94290370
:100060000C9429030C942903200020000FED032198
:10007000534449534B494920434647004E6F205350
:100080004420696E7365727465640046415431366C
:1000900000464154333200547970653A2000436F72
:1000A00064653A2000534420426C6F636B204552D4
:1000B000524F52004D697373696E67204D42522052
:1000C000202000436C7573746572203C2033326BC2
:1000D00042004E6F742046415431362F3332202077
:1000E00000426F6F7420736563746F72202020006C
:1000F00053442063616E277420696E697420005335
:10010000442063616E27742069646C65200045207B
:10011000522052204F2052004E6F726D616C20535E
:1001200044206361726400534448432063617264F5
:1001300020202020200020536F7274696E67206693
:10014000696C6573202E2E2E20202000204E6F74A7
:1001500068696E6720666F756E64206865726521D8
:100160002000204275696C64696E67206C69737445
:10017000002053454C454354204E49432020202025
:1001800020202020202000547261636B3A20002040
:1001900053442053454C4543542044454C41592039
:1001A0002020202000204C434420434F4E545241F5
:1001B00053542020202020202020002056616C75E0
:1001C000653A200020526F74617465206469737011
:1001D0006C6179202020202020002053657420634A
:1001E0006F6E747261737420202020202020200004
:1001F000205365742053442064656C61792020206D
:10020000202020202000202020202020202020200E
:100210002020202020202020202020002053455472
:100220005550202020202020202020202020202069
:100230002000204E49432020202020202020202064
:100240002020202020202000202076657273696FF6
:100250006E20352E352028323032302900202053B0
:100260004449534B205D5B202D2042524153494C61
:1002700000000000000000000000000000000080FE
:10028000C0E0F0F8F83800000000000000000000B6
:10029000000000000000000000000000000000005E
:1002A000000000000000000000000000000000004E
:1002B000000000000000000000000000C0E0F0F0BE
:1002C000F8F8F8F8F8F8F8F0F0F7F7FFFBF9F8F8B5
:1002D000F8F8F8F8F07000000000000000000000DE
:1002E000000000000000000000000000000000000E
:1002F00000000000000000C0E0E00000000000007E
:100300000000000000FFFFFFFFFFFFFFFFFFFFFFF8
:10031000FFFFFFFFFFFFFFFFFFFFFFFFFF83007CEB
:10032000FEFFC7C7C70707FFFF00FFFFFF0787C71D
:10033000C7EFFEFE1800FFFFFF07C7C7C7FFFE7C21
:1003400000FFFFFF007CFEFFC7C7E7F7FFFFDF07E7
:100350001F7FFFFFFFFFFFFFFFFFFFFFFFFFFFFF0D
:10036000FFFFFFFFFFFFFFFFFEFC3801010101005F
:1003700000010100070F0F00010101010000000052
:100380000F0F070001010101000000010101000041
:100390000001010101010101010000000103070F3B
:1003A0001F1F1F1F1F0F0F0F0F0F0F1F1F1F1F1FBD
:1003B0000F07030000000000000000000000000024
:1003C000000000000000000000000000000000002D
:1003D000000000000000000000000000000000001D
:1003E00000000008141C1C1C1C1C1C36636322002B
:1003F00000FFFFF7E3E3F7FFFD0000007432524215
:1004000042424A4C2E00000000000402FF02040099
:100410000000000000002040FF402000000000001D
:10042000002070A82020203F0000000000FE8282F3
:10043000828484FC000000000000000000005F00D7
:10044000000007000700147F147F14242A7F2A125B
:10045000231308646236495522500005030000004A
:100460001C2241000041221C0014083E0814080808
:100470003E080800503000000808080808006060C6
:10048000000020100804023E5149453E00427F40D2
:100490000042615149462141454B311814127F10E9
:1004A00027454545393C4A4949300171090503361C
:1004B00049494936064949291E003636000000568A
:1004C00036000008142241001414141414004122B0
:1004D00014080201510906324979413E7E11111179
:1004E0007E7F494949363E414141227F4141221C9C
:1004F0007F494949417F090909013E4149497A7FBC
:100500000808087F00417F41002040413F017F08EB
:100510001422417F404040407F020C027F7F04084C
:10052000107F3E4141413E7F090909063E4151216C
:100530005E7F09192946464949493101017F010178
:100540003F4040403F1F2040201F3F4038403F6316
:100550001408146307087008076151494543007F78
:1005600041410002040810200041417F00040201C3
:100570000204404040404000010204002054545412
:10058000787F484444383844444420384444487FC1
:100590003854545418087E0901020C5252523E7FBE
:1005A0000804047800447D40002040443D007F1052
:1005B00028440000417F40007C041804787C080433
:1005C000047838444444387C14141408081414186B
:1005D0007C7C080404084854545420043F444020C0
:1005E0003C4040207C1C2040201C3C4030403C448F
:1005F000281028440C5050503C4464544C4400088B
:1006000036410000007F0000004136080010080855
:10061000100800060909060011241FBECFEFD8E01C
:10062000DEBFCDBF11E0A0E0B1E0EEEAF7E302C02B
:1006300005900D92A630B107D9F726E0A6E0B1E00B
:1006400001C01D92A83FB207E1F70E94BC190C94AB
:10065000D51B0C9400000E944E1262E085E20E94BD
:1006600082118EE091E00E948C1264E086E10E948B
:1006700082118CE790E00E948C12499BFECF089576
:10068000CF93C82F14B817B81AB815B818B81BB834
:10069000249A2C9A399A3B9A419A17BC14BC81E04F
:1006A00085BD92E095BF90936900109293061092D9
:1006B000CE061092CD061092CC06109292061092A1
:1006C0009106109299068093A1061092A0061092AE
:1006D00010011092180189E191E09093A306809394
:1006E000A20680E090E00E94BF1B823018F4809345
:1006F000980607C01092980660E080E090E00E94A3
:10070000C71BCC2349F10E944C128091980681307E
:1007100011F40E94BE110E944E1260E080E00E941F
:1007200082110E94F41266E08DE00E9482118DE534
:1007300092E00E948C1267E087E00E94821188E4B8
:1007400092E00E948C122FEF8CED9DE621508040AC
:100750009040E1F700C00000CF9108951F93CF9320
:10076000DF93182FD62FC42F67E080E00E948211FC
:100770000E94F21286E092E00E948C1267E080E014
:100780000E948211812F90E00E949B1267E08AE311
:100790000E9482118D2F90E00E949B1267E083E7F8
:1007A0000E9482118C2F90E00E949B12DF91CF91CA
:1007B0001F910C94F212FC01892B89F0808188230F
:1007C00079F0853E61F08F3551F080858E3439F4B3
:1007D0008185893421F481E09285933409F080E0A9
:1007E0000895FC01892B59F08081882349F0853ECA
:1007F00031F08F3521F0838582958170089580E0F6
:100800000895CF92DF92EF92FF920F931F93CF93B1
:10081000DF938FEF9FEF90930101809300010E947F
:1008200057176B017C01672B682B692BD9F180E08E
:1008300090E00E94881800E010E0C8010E94E417D0
:10084000EC01892B49F18881853E11F0811124C08A
:100850008B858F3009F1109301010093000160E74F
:1008600070E0CE010E94231B81E08B87FD8AEC8A19
:10087000DB8ECA8E6091D8067091D9068091DA0617
:100880009091DB06DF91CF911F910F91FF90EF9038
:10089000DF90CF900C94F2140F5F1F4F003981E06E
:1008A000180759F6DF91CF911F910F91FF90EF90AC
:1008B000DF90CF9008958F929F92AF92BF92CF9288
:1008C000DF92EF92FF921F93CF93DF93182FD62FD3
:1008D000C42F862F90E020E1429F800D911D1124AE
:1008E000FC010090F70602C0F695E7950A94E2F73E
:1008F000EE0FFF1FEE0FFF1FEC55F94F40815181A6
:100900006281738120E12BB91BB82091F60630E09B
:100910002150310982239323C090E306D090E4064E
:10092000E090E506F090E60646015701880E991E14
:10093000A11CB11C42505109610971090090F706D0
:1009400004C0440F551F661F771F0A94D2F7480D45
:10095000591D6A1D7B1D88E10E94EB138FEF0E94D9
:1009600022138EEF0E94221380EB90E038E028E201
:100970003BB92BB90197E1F71BB883E00E94221322
:100980008CEF0E9422138FEF0E9422138FE30E94AC
:1009900022138FEC0E94221383EF0E9422138CEF0C
:1009A0000E9422138FEF0E9422138FE30E942213D2
:1009B0008FEC0E94221383EF0E9422138CEF0E947F
:1009C000221385ED0E9422138AEA0E94221386E9EF
:1009D0000E9422138FEF0E9422138EEF0E94221397
:1009E0008C2F86958A6A0E9422138C2F8A6A0E9415
:1009F00022138D2F86958A6A0E9422138D2F8A6A70
:100A00000E9422138EEFD827CD278C2F86958A6AD5
:100A10000E9422138C2F8A6A0E9422138EED0E945C
:100A200022138AEA0E9422138BEE0E9422138FEF78
:100A30000E9422138FEF0E9422138FEF0E94221335
:100A40008FEF0E9422138FEF0E9422138EE591E018
:100A5000189FB001199F700D112480E090E050E2C2
:100A6000A8E0B8E2FB01E80FF91FE75EFE4FE08166
:100A700028E030E040E8FE2FF42319F0ABB9BBB911
:100A800002C01BB85BB9469521503109A1F7019608
:100A90008D3521E0920731F71BB880E790E038E010
:100AA00028E23BB92BB90197E1F71BB880E093E04E
:100AB00020E21BB82BB90197E1F71BB88FEF0E941A
:100AC00022138FEF0E9422130E9436130E94FD15FD
:100AD00080E18BB91BB8DF91CF911F91FF90EF9010
:100AE000DF90CF90BF90AF909F908F900895CF925E
:100AF000DF92EF92FF920F931F93CF93DF93499B67
:100B000035C00CE011E0F80181918F3F59F181E18E
:100B1000C82E81E0D82E99E1E92E91E0F92EC0E0AF
:100B2000DFEFF80160816F3F29F0F60140818C2FE3
:100B30000E945B04F801D1938F01F601D1936F01FC
:100B4000F7011282CF5FF2EAEF1AFEEFFF0AC4301C
:100B500041F71092100189E191E09093A3068093F0
:100B6000A20604C081E0E031F80771F6DF91CF9171
:100B70001F910F91FF90EF90DF90CF90089580919B
:100B800091069091920680399C40C0F488E08BB920
:100B9000809191069091920628E238E0803140E100
:100BA000940730F4499B0AC02BB93BB90196F6CFA4
:100BB00080E99CE090939206809391060895499B6A
:100BC0006EC090911001292F30E04EE551E0249F36
:100BD000F001259FF00D349FF00D1124E75EFE4FCC
:100BE00082818D3A09F042C080911801811131C093
:100BF00080919306F901E45FFE4F8083F901EF5E77
:100C0000FE4F4091A006469546954083282F2D7FA4
:100C10002D3011F48E5F01C08F5F8F70809393062B
:100C2000933029F40E94BF050E9477051CC09F5F86
:100C3000909310014EE551E0949F9001959F300DE7
:100C40001124C901875E9E4F9093A3068093A2064C
:100C50000DC080910A0180939306109218018F3085
:100C6000F1F40E94BF0581E08093A106209110015C
:100C70008EE591E0289FF001299FF00D1124E75E99
:100C8000FE4F8281863959F487818575880F90855A
:100C90009575892B80930A0181E08093180108954E
:100CA00029E131E044E080E090E0F901E80FF91F2C
:100CB000108201968E3551E09507B9F74150225ABE
:100CC0003E4F4111F0CF8FEF8093110180930C01C3
:100CD0008093120180930D018093130180930E0184
:100CE0008093140180930F010895CF93C82F8FEF45
:100CF0009FEF90930101809300010E94E3135C98A1
:100D0000499903C00E942B034CC089E191E0909364
:100D1000DD068093DC060E944015811144C00E94CC
:100D20004E1262E085E20E9482118EE091E00E9404
:100D30008C1264E086E10E9482118091D506813098
:100D400019F48FEF90E004C0823029F480EF90E036
:100D50000E948C1222C0833019F481EE90E0F8CF0B
:100D6000843019F482ED90E0F3CF853019F483ECF0
:100D700090E0EECF863019F484EB90E0E9CF873035
:100D800019F485EA90E0E4CF8EE990E00E948C129D
:100D90008091D50690E00E9452121092CE06499999
:100DA000FECF80E0B0C0CC23D9F00E944E1262E0AA
:100DB00080E00E9482118091E006823019F487E27F
:100DC00091E002C088E191E00E948C125C982FEFC4
:100DD0008DE399E4215080409040E1F700C000008D
:100DE0000E940416811143C00E944E1262E085E207
:100DF0000E9482118EE091E00E948C1264E086E1F4
:100E00000E9482118091D506813019F48FEF90E015
:100E100004C0823029F480EF90E00E948C1222C03E
:100E2000833019F481EE90E0F8CF843019F482ED2C
:100E300090E0F3CF853019F483EC90E0EECF86306C
:100E400019F484EB90E0E9CF873019F485EA90E05B
:100E5000E4CF8EE990E00E948C128091D50690E05C
:100E60000E9452121092CE064999FECF9ACF40911D
:100E7000F6062091F0063091F106429FC001439F93
:100E8000900D112481159047D0F485E08093D5060C
:100E90000E944E1262E085E20E9482118EE091E093
:100EA0000E948C1264E086E10E94821183EC90E043
:100EB0000E948C121092CE064999FECF72CFCC239D
:100EC000E1F064E080E00E94821187E990E00E94F6
:100ED0008C128091E7068B3019F481E990E002C012
:100EE0008BE890E00E948C128FEF9DE329E4815003
:100EF00090402040E1F700C000005C980E9450063E
:100F00000E94DF1381E0CF9108958F929F92AF925C
:100F1000BF92CF92DF92EF92FF920F931F93CF93E6
:100F2000DF936115710519F480E090E055C17B01F4
:100F3000EC010E944E1260E080E00E9482110E944B
:100F4000F01282E392E00E948C1260E080E60E9440
:100F500082118091E7068B3019F481E990E002C09C
:100F60008BE890E00E948C120E94F01242E061E057
:100F700080E00E94AE0362E080E00E94821181E086
:100F800090E00E949B126701570108E0A00EB11C7F
:100F9000F60181916F01803211F00E940C11AC14A6
:100FA000BD04B1F7D0930701C09306012091E70675
:100FB000F701828D938D2B3091F44489558960E03F
:100FC00070E0BA0155274427A0E0B0E08A019B01F8
:100FD000082B192B2A2B3B2BC901B80103C0BC01DC
:100FE00080E090E0611571058105910509F49CCFC1
:100FF000E4EAF6E0119211921192119216E0EC3CA3
:10100000F107C1F76093A4067093A5068093A60626
:101010009093A70611E0663FFFEF7F0781059105DA
:10102000A8F40E94F116663F2FEF72078105910523
:1010300058F434E0139FF0011124EC55F94F60830C
:101040007183828393831F5F1A3028F38090EC06AC
:101050009090ED06A090EE06B090EF068091000112
:1010600090910101019609F488C080E090E00E940F
:1010700088188FEF9FEFDC018093D8069093D906F4
:10108000A093DA06B093DB068091000190910101F4
:101090000E94F718FC012091E706828D938D2B307A
:1010A00071F4C488D588E12CF12C7601DD24CC24A0
:1010B000A0E0B0E0C82AD92AEA2AFB2A03C06C01C2
:1010C000E12CF12C02E0C01AD108E108F108A0914E
:1010D000F606B0E0A70196010E94181B0091E306F6
:1010E0001091E4062091E5063091E606600F711F2D
:1010F000821F931F0E949B14E091DC06F091DD0695
:101100008DEC92E0ABEAB1E080839183A283B3835C
:101110004581568167817085818592858416950603
:10112000A606B70619F48C179D0731F0438754873C
:1011300065877687908B878785829682A782B0861F
:10114000D287C1878091D706848380919C06818B4A
:10115000A091F606B0E0A70196010E94181BC0906E
:10116000E306D090E406E090E506F090E6066C0D0C
:101170007D1D8E1D9F1D0E94F2148092EC069092A0
:10118000ED06A092EE06B092EF0610929206109233
:1011900091061092CD0610929906C1E0C093A10667
:1011A0001092A0061092930610921001109218014E
:1011B00089E191E09093A3068093A2065C9840E0B9
:1011C00052E060E070E080E10E9430140E9450061E
:1011D000C093CE0681E090E0DF91CF911F910F91F7
:1011E000FF90EF90DF90CF90BF90AF909F908F9047
:1011F0000895CF92DF92EF92FF920F931F93CF93B8
:10120000DF93C090EC06D090ED06E090EE06F090F3
:10121000EF068091000190910101019609F477C0D9
:1012200080E090E00E9488188FEF9FEFDC018093B0
:10123000D8069093D906A093DA06B093DB06809186
:101240000001909101010E94F718FC012091E7062E
:10125000828D938D2B3079F424893589A90160E042
:1012600070E0BA0155274427A0E0B0E0842B952B0D
:10127000A62BB72B02C0A0E0B0E09C01AD0122502C
:10128000310941095109A091F606B0E00E94181BEE
:101290000091E3061091E4062091E5063091E60600
:1012A000600F711F821F931F0E949B14E091DC0648
:1012B000F091DD068FEF9FEFDC018093D8069093CD
:1012C000D906A093DA06B093DB0683859485A585BD
:1012D000B6858093EC069093ED06A093EE06B0934E
:1012E000EF06C785D089CE010E94F7188C010E94B5
:1012F000DB03882361F0B801CE01DF91CF911F910C
:101300000F91FF90EF90DF90CF900C948507C092E3
:10131000EC06D092ED06E092EE06F092EF06DF9139
:10132000CF911F910F91FF90EF90DF90CF90089594
:101330005E9A2D9A5F9A0895CF92DF92EF92FF9274
:101340000F931F93CF93DF93809100019091010140
:10135000019611F4DFEA5BC080E090E00E948818FB
:1013600089E191E09093DD068093DC060E945006AF
:101370001092D8061092D9061092DA061092DB0667
:1013800080910001909101010E94F718FC012091C9
:10139000E706828D938D2B3079F424893589A90154
:1013A00060E070E0BA0155274427A0E0B0E0482B88
:1013B000592B6A2B7B2B03C0AC0160E070E0A0913D
:1013C000F6069A01AB012250310941095109B0E0FA
:1013D0000E94181B0091E3061091E4062091E50697
:1013E0003091E606600F711F821F931F0E949B14AD
:1013F000E091DC06F091DD0680819181A281B381CC
:101400008D3C9240AB4AB14009F0A4CFD1890E94F3
:101410004E1260E080E00E9482110E94F01285EA84
:1014200091E00E948C120E94F01243E065E084E09B
:101430000E94AE0362E080E00E9482118BEB91E09B
:101440000E948C128D2F90E00E945212ED2EFD2EE4
:101450000E949809FE1481F062E080E00E948211EF
:101460008BEB91E00E948C128F2D90E00E94521223
:101470008AE690E00E948C12499BC0C04F9B13C02B
:101480004F99FECF8FEF95EA2EE08150904020409B
:10149000E1F700C00000CFEFCF0DC0939C068C2F6A
:1014A0000E94FE1001C0CF2D1D9B11C01D99FECFC3
:1014B0008FEF95EA2EE0815090402040E1F700C088
:1014C0000000CF5FC0939C068C2F0E94FE10EF2C73
:1014D0004E9902C0FC2EBCCF4E99FECF8FEF95EAFD
:1014E0002EE0815090402040E1F700C00000DC1762
:1014F00009F484C0C0939C068C2F0E94FE105C9857
:101500008091000190910101019609F477C080E07B
:1015100090E00E94881889E191E09093DD06809325
:10152000DC060E9450061092D8061092D90610923E
:10153000DA061092DB0680910001909101010E9471
:10154000F718FC012091E706828D938D2B3071F402
:10155000C488D588E12CF12C7601DD24CC24A0E0D0
:10156000B0E0C82AD92AEA2AFB2A03C06C01E12C80
:10157000F12C82E0C81AD108E108F108A091F60622
:10158000B0E0A70196010E94181B0091E30610919C
:10159000E4062091E5063091E606600F711F821F78
:1015A000931F0E949B14E091DC06F091DD06808180
:1015B0009181A281B3818D3C9240AB4AB140F1F45C
:1015C000C18BA091F606B0E0A70196010E94181BFE
:1015D000C090E306D090E406E090E506F090E606C1
:1015E0006C0D7D1D8E1D9F1DDF91CF911F910F9161
:1015F000FF90EF90DF90CF900C94F214DF91CF9199
:101600001F910F91FF90EF90DF90CF900895CF92B0
:10161000DF92EF92FF920F931F93CF93DF930E947D
:101620004E1260E080E00E9482110E94F0128FE86A
:1016300091E00E948C120E94F01243E065E084E089
:101640000E94AE0363E080E00E9482118BEB91E088
:101650000E948C128091D70690E00E945212F09066
:10166000D706EF2CCAE0D1E00E9498098091D706F6
:10167000E81699F063E080E00E9482118BEB91E024
:101680000E948C128091D70690E00E94521288E648
:1016900090E00E948C12E090D706499BBFC04F9B00
:1016A00014C04F99FECF2FEF85EA9EE02150804075
:1016B0009040E1F700C000008091D706815019F0FA
:1016C0008093D70602C0C093D7061D9B15C01D99F5
:1016D000FECF2FEF85EA9EE0215080409040E1F759
:1016E00000C000008091D7068F5F8B3018F4809384
:1016F000D70602C0D093D7064E9BB6CF4E99FECFE9
:101700002FEF85EA9EE0215080409040E1F700C035
:1017100000008091D706F81609F480C0809100017E
:1017200090910101019609F479C080E090E00E9457
:10173000881889E191E09093DD068093DC060E9491
:1017400050061092D8061092D9061092DA0610921E
:10175000DB0680910001909101010E94F718FC01C5
:101760002091E706828D938D2B3071F4C488D58843
:10177000E12CF12C7601DD24CC24A0E0B0E0C82AD5
:10178000D92AEA2AFB2A03C06C01E12CF12C82E061
:10179000C81AD108E108F108A091F606B0E0A70147
:1017A00096010E94181B0091E3061091E406209117
:1017B000E5063091E606600F711F821F931F0E949D
:1017C0009B14E091DC06F091DD0680819181A2817D
:1017D000B3818D3C9240AB4AB14001F58091D70670
:1017E0008483A091F606B0E0A70196010E94181B21
:1017F000C090E306D090E406E090E506F090E6069F
:101800006C0D7D1D8E1D9F1DDF91CF911F910F913E
:10181000FF90EF90DF90CF900C94F214DF91CF9176
:101820001F910F91FF90EF90DF90CF900895CF938D
:10183000DF930E944E1260E080E00E9482110E94BD
:10184000F0128CE192E00E948C120E94F01243E0B0
:1018500065E084E00E94AE0362E080E00E948211B5
:101860000E94EE1280EF91E00E948C120E94EE1214
:1018700063E080E00E9482118AED91E00E948C1268
:1018800064E080E00E94821184EC91E00E948C125E
:10189000C1E00E9498094F9B34C04F99FECF2FEFB3
:1018A00085EA9EE0215080409040E1F700C00000B2
:1018B000CF5FC43018F562E080E00E94821180EFB3
:1018C00091E00E948C12C23011F40E94EE1263E08B
:1018D00080E00E9482118AED91E00E948C120E94A9
:1018E000EE1264E080E00E94821184EC91E00E949C
:1018F0008C12C33029F40E94EE1203C0C3E001C071
:10190000C2E01D9B3AC01D99FECF2FEF85EA9EE0F5
:10191000215080409040E1F700C00000DFEFDC0F75
:1019200071F1D13011F40E94EE1262E080E00E9469
:10193000821180EF91E00E948C128EEF8C0F82302A
:1019400010F40E94EE1263E080E00E9482118AEDA2
:1019500091E00E948C12C350C23010F40E94EE122B
:1019600064E080E00E94821184EC91E00E948C127D
:10197000D33031F40E94EE1203C0DC2F01C0D1E05D
:101980004E9902C0CD2F85CF4E99FECF2FEF85EA1D
:101990009EE0215080409040E1F700C00000D1302F
:1019A00021F4DF91CF910C94070BD23021F4DF9119
:1019B000CF910C949C09D330B1F480919806811199
:1019C00006C081E0809398060E94BE1104C0109268
:1019D00098060E94C8116091980680E090E0DF911F
:1019E000CF910C94C71BDF91CF910895AF92BF9216
:1019F000CF92DF92EF92FF920F931F93CF93DF93DB
:101A0000CDB7DEB728970FB6F894DEBF0FBECDBFB7
:101A1000109209011092080189E191E09093DD068E
:101A20008093DC0685ED93E090939E0680939D065F
:101A30008FEF9FEFDC018093D8069093D906A09397
:101A4000DA06B093DB060E9450060E94F01260E0B6
:101A500080E00E94821181E791E00E948C120E9436
:101A6000F01243E065E084E00E94AE0311E0612FD4
:101A700080E00E94821186E092E00E948C121F5F3B
:101A80001630A9F763E080E00E94821182E691E0BF
:101A90000E948C1200E010E0C8010E94F7187C013F
:101AA000009799F0FC01808181110FC0809108019D
:101AB00090910901892BC9F563E080E00E948211B1
:101AC0008CE491E00E948C125DC1C7010E94DB038F
:101AD000811105C0C7010E94F1038823B9F0E0918C
:101AE0000801F0910901EE0FFF1F80919D06909172
:101AF0009E06E80FF91F11830083809108019091E1
:101B00000901019690930901809308010F5F1F4F0F
:101B10008091080190910901883C91053CF60039BB
:101B2000F1E01F0709F0B8CFC1CF63E080E00E9469
:101B3000821186E391E00E948C12809108019091BD
:101B4000090102971CF0C12CD12C5CC02091080126
:101B5000309109014091060150910701E0919D06E5
:101B6000F0919E0600E010E080E090E060C0580137
:101B7000AA0CBB1CE0919D06F0919E06EA0DFB1D90
:101B8000808191810E94F71848E050E0BC01CE01AD
:101B900001960E94451BE0919D06F0919E06EE0D78
:101BA000FF1D808191810E94F71848E050E0BC0140
:101BB000CE0101960E94381B97FF12C0E0919D064E
:101BC000F0919E06DF01AA0DBB1D8D919C9111978E
:101BD000EE0DFF1D208131812D933C9391838083F5
:101BE0000F5F1F4F22E0E20EF11C809108019091DF
:101BF00009018C199D09081719070CF4B8CF8FEF4C
:101C0000C81AD80A80910801909109010197C81655
:101C1000D9060CF09BCFE12CF12C01E010E0E5CFD0
:101C2000619171916417750709F48C01019682170F
:101C30009307B4F3EE24EA94FE2C0E949809499B82
:101C4000A1C04F9B16C04F99FECF9FEFE5EAFEE083
:101C50009150E040F040E1F700C000000F5F1F4FDF
:101C600080910801909109010817190711F400E00B
:101C700010E01D9B15C01D99FECF2FEF85EA9EE059
:101C8000215080409040E1F700C000000150110950
:101C900017FF06C0009108011091090101501109B8
:101CA0004E9B2FC04E99FECFEFEFF5EA2EE0E150AC
:101CB000F0402040E1F700C00000000F111FE0914C
:101CC0009D06F0919E06E00FF11F808191810E9498
:101CD000F7187C010E94F103882331F0C7010E94AC
:101CE00088180E94F60C4EC080919D0690919E0629
:101CF000FC01E00FF11FB701808191810E948507EF
:101D000041C00E151F0509F498CFE0919D06F09192
:101D10009E06C801880F991FE80FF91F80819181E5
:101D20000E94F7187C0163E080E00E948211C701E5
:101D30000E94F103882319F086E090E002C081E060
:101D400090E00E949B126701570188E0A80EB11C29
:101D5000E12CF60181916F01803219F00E940C1183
:101D6000E394AC14BD04A9F7F12C20E1E216F104D0
:101D70003CF480E20E940C11FFEFEF1AFF0AF5CF4E
:101D800078015BCF28960FB6F894DEBF0FBECDBFAB
:101D9000DF91CF911F910F91FF90EF90DF90CF9047
:101DA000BF90AF900895CF92DF92EF92FF920F9382
:101DB0001F93CF93DF9389E191E09093DD068093A9
:101DC000DC068FEF9FEFDC018093D8069093D90655
:101DD000A093DA06B093DB0680E090E00E948818BA
:101DE0008FEF9FEF9093010180930001CFEFDFEF22
:101DF00000E010E0C8010E94F7187C01009709F488
:101E00008FC0FC018081882309F491C0C7010E9422
:101E1000DB03882329F0CF3FFFEFDF0709F4E80158
:101E20004BE050E060E770E0C7010E942A1B892B5D
:101E300009F076C010930101009300012091E7069C
:101E4000F701828D938D2B3079F424893589A9018E
:101E500060E070E0BA0155274427A0E0B0E0482BCD
:101E6000592B6A2B7B2B03C0AC0160E070E0A09182
:101E7000F6069A01AB012250310941095109B0E03F
:101E80000E94181BC090E306D090E406E090E5069F
:101E9000F090E6066C0D7D1D8E1D9F1D0E949B140B
:101EA000E090DC06F090DD06F70180819181A2814F
:101EB000B3818D3C9240AB4AB14051F5F70184812A
:101EC0008093D706818980939C060E94FE105C98BF
:101ED000F70185819681A781B0858093EC06909368
:101EE000ED06A093EE06B093EF06D184F2848D2D1B
:101EF0009F2D0E94F718009739F00E94DB0388237A
:101F000019F0CD2DDF2D13C080E090E00E948818DD
:101F100080E090E00E948818CF3FFFEFDF07E1F4F8
:101F20000F5F1F4F003921E0120709F063CFCF3F49
:101F30008FEFD80789F4F8940E94F60C499B1BC0D8
:101F40008091CE06882331F080916E00816080936D
:101F50006E00E89A78940FC0CE010E94F718BC0179
:101F6000CE01DF91CF911F910F91FF90EF90DF9005
:101F7000CF900C948507DF91CF911F910F91FF9027
:101F8000EF90DF90CF9008950E949809499912C070
:101F90008FEF90E049996EC00197E1F780916E0054
:101FA0008E7F80936E00E8981092CE061092A10664
:101FB0000C942B03309B42C04E9904C04F9902C031
:101FC0001D9B3CC04E9B10C084E690E021E04E9BE0
:101FD00020E00197E1F7222309F44CC04E99FECF8F
:101FE000F8940E94F60C27C04F9B15C024E630E001
:101FF00081E099B1990F990B892321503109C9F7D3
:10200000882309F437C04F99FECFF8940E94170C2B
:10201000499B30C022C01D9B2DC084E690E021E08A
:102020001D9B20E00197E1F7222321F11D99FECFAE
:10203000F8940E94F908499912C01CC08091CE06FC
:10204000811118C08FEF90E0499B14C00197E1F710
:10205000F89481E00E94750681110E94D30E809150
:10206000CE06882331F080916E00816080936E00EF
:10207000E89A7894089595E09A95F1F7089508956F
:10208000349BFECFA894089508953D983C984598B8
:10209000449888279927359B0895349B089581E0BB
:1020A000089581E00895349BEBDF3D9AE4DF2AD068
:1020B000089581E008953C9ADEDF3D98DCDF3C988E
:1020C000DADF349BDDDF3D9AD6DF1CD0089581E056
:1020D00008958F938F918F93349BD2DF3D9ACBDFFE
:1020E00011D0882311F404D0F5CF0F9008950895EE
:1020F0003C9A3D9AC0DF3C98BEDF349BC1DF3D98DF
:10210000BADF08950894881F01C0880FB9F03C9A7F
:1021100000000000000018F400003D9802C03D9A45
:1021200000C0A9DF3C98A894000000000000349B88
:10213000A7DF12F4882712C09EDFE7CF3C9A000089
:1021400000003D9898DF992788273C98A8940000C4
:10215000349B96DF7AF3359B81E08DDF0000000031
:102160003C9A089581E0089571E03C9A3D98000002
:102170000000000080DF3C987EDFA8940000000093
:102180000000349B7DDFB2F0889435990894771F66
:1021900060F73C9A803011F03D9801C03D9A0000F4
:1021A0000000000068DF3C98A89400000000349B09
:1021B00067DF61DF000000003C9A872F99270895B0
:1021C00080E20895CF93C82F88E70E94531080E0E3
:1021D0000E9482108C2F0E948210CF910C94781054
:1021E000CF93C82F88E70E94531080E40E9482108A
:1021F0008C2F0E948210CF910C947810CF93C82F0F
:1022000081E890E00E94E2108C2F90E00E94E210A2
:10221000C093D206CF9108950F931F93CF93DF936E
:10222000C82F88E70E94531080E40E94821085E046
:10223000C89FE001112400E010E0C05AD109FE015E
:10224000E00FF11FE95CFB4FE4918091D006811112
:10225000E0958091D306813011F080E001C080E8E4
:1022600091E02091D106213009F090E0E92B8E2BEE
:102270000E9482100F5F1F4F0530110501F781E0AA
:102280009091D006913009F080E0982F919580913F
:10229000D306813011F020E001C020E881E03091C8
:1022A000D106313009F080E0892B822B0E94821008
:1022B000DF91CF911F910F910C947810CF93DF9302
:1022C000EC018991882319F00E940C11FACFDF915B
:1022D000CF91089581E09091D006911180E0809394
:1022E000D006089581E09091D306911180E080930B
:1022F000D306089581E09091D106911180E08093FA
:10230000D1060895CF93DF93C82F862F90E0805594
:102310009F4F0E94E210C695C695C69588E0C89F5B
:10232000E001112420919F06CE0188709927820F29
:10233000911D0E94E210CE0124E0959587952A9583
:10234000E1F74096DF91CF910C94E2100F931F9329
:10235000CF93C0E06C2F80E00E94821104E810E06F
:1023600080E00E94F01001501109D1F7CF5FC83012
:1023700089F7CF911F910F910C94781081EA90E02A
:102380000E94E21088EC90E00E94E2100C94A611EA
:1023900080EA90E00E94E21080EC90E00E94E2105F
:1023A0000C94A6110E9445108EEA90E00E94E21063
:1023B00086EA90E00E94E21085ED90E00E94E21033
:1023C00080E890E00E94E21088EA90E00E94E2102B
:1023D0008FE390E00E94E21083ED90E00E94E21013
:1023E00080E090E00E94E21080E490E00E94E21021
:1023F0008DE890E00E94E21084E190E00E94E210FB
:1024000080E290E00E94E21080E090E00E94E21002
:1024100080EA90E00E94E21088EC90E00E94E210D6
:102420008AED90E00E94E21082E190E00E94E210CA
:1024300081E890E00E94E2108FEC90E00E94E210B0
:1024400089ED90E00E94E21081EF90E00E94E2109E
:102450008BED90E00E94E21080E490E00E94E21098
:1024600084EA90E00E94E21086EA90E00E94E21086
:102470008FEA90E00E94E2108FEC8093D206809366
:102480009C0682E080939F061092D0061092D3069D
:102490001092D1060C94C8110C94D2110C94A61170
:1024A0000C945E11CF93DF93CDB7DEB72A970FB6AA
:1024B000F894DEBF0FBECDBF4AE0BE016F5F7F4F15
:1024C0000E94591BCE0101960E945E112A960FB6FA
:1024D000F894DEBF0FBECDBFDF91CF910895CF93AB
:1024E000DF93CDB7DEB72A970FB6F894DEBF0FBEE5
:1024F000CDBF2AE0AE014F5F5F4F0E94641BCE014B
:1025000001960E945E112A960FB6F894DEBF0FBEA8
:10251000CDBFDF91CF910895CF93DF93FC018491DC
:10252000EF012196882321F00E940C11FE01F7CFC4
:10253000DF91CF910895EF92FF920F931F93CF9366
:10254000DF937C018CE08E9D80018F9D100D112406
:10255000C0E0D0E08FEFE816F10439F0FE01E00FA3
:10256000F11FED51FC4FE49101C0E0E08091D006F5
:102570008111E0958091D306813011F080E001C097
:1025800080E891E02091D106213009F090E0E92B1C
:102590008E2B0E94F0102196CC30D105D9F681E027
:1025A0009091D006913009F080E0982F919580911C
:1025B000D306813011F020E001C020E881E03091A5
:1025C000D106313009F080E0892B822BDF91CF9149
:1025D0001F910F91FF90EF900C94F0100C946A11E2
:1025E0000C9472110C947A11EF92FF920F931F9337
:1025F000CF93E12CF12CC0E06C2F89E10E94821175
:1026000000E010E0F801EE0DFF1DEF58FD4F849142
:102610000E94F0100F5F1F4F0A34110599F7CF5F2A
:102620008AE4E80EF11CC53039F7CF911F910F9164
:10263000FF90EF900895549A539A559A509810929B
:10264000D406089528E030E090E840E258E068E2DF
:10265000782F792319F05BB96BB902C01BB84BB95D
:10266000969521503109A1F71BB80895CF93DF93B8
:102670001F92CDB7DEB788E08BB9198280E028E2DF
:1026800038E09981983051F02BB999B1880F917049
:10269000892B3BB999819F5F9983F3CF0F90DF918D
:1026A000CF91089588E38BB988E18BB9089528E12B
:1026B00000002A95E9F70197D1F708950895DF9270
:1026C000EF92FF920F931F93CF93DF93082FC8E0F1
:1026D000D0E010E880E2F82E98E0E92E28E2D22E31
:1026E000802F812339F0EBB881E090E00E945713EE
:1026F000DBB806C01BB881E090E00E945713FBB81E
:102700001695219769F781E090E00E9457131BB856
:10271000DF91CF911F910F91FF90EF90DF9008957F
:102720009091D406911103C00E945F1302C00E94D1
:10273000221380E00895FF920F931F93CF93DF93AE
:102740001F92CDB7DEB788E08BB981E090E00E94A0
:102750005713198210E008E288E0F82E898188304A
:1027600091F00BB981E090E00E94571389B1110FED
:102770008170182BFBB881E090E00E94571389818B
:102780008F5F8983EBCF812F0F90DF91CF911F91C6
:102790000F91FF9008958091D406811102C00C948E
:1027A0009B130C94361388E38BB981E090E00E9470
:1027B000571388E18BB981E090E00C94571381E0C6
:1027C0008093D40608951092D40608950E9436137B
:1027D00087FDFCCF0895CF92DF92EF92FF92CF93C7
:1027E000C82F6A017B010090D60604C0CC0CDD1C0A
:1027F000EE1CFF1C0A94D2F78FEF0E9422138C2F3D
:1028000080640E9422138F2D0E9422138E2D0E941D
:1028100022138D2D0E9422138C2D0E94221385E9F4
:102820000E9422138FEF0E9422130E94E6138093CE
:10283000E10681508E3FC8F3CF91FF90EF90DF907B
:10284000CF900895AB01BC011092DF0681E10E9498
:10285000EB130E9436138093E2068E3FD1F7089562
:10286000CF92DF92EF92FF92CF93DF93C82F6A014E
:102870007B018091DE06811113C08FEE8C0F8230B8
:1028800040F088EE8C0F823020F080EE8C0F82308A
:1028900038F489E0CC0CDD1CEE1CFF1C8A95D1F7C6
:1028A0008FEF0E9490138C2F80640E9490138F2DC5
:1028B0000E9490138E2D0E9490138D2D0E949013D4
:1028C0008C2D0E949013C83011F487E801C085E96F
:1028D0000E949013F12C0E94CB13D82F8F3F21F42C
:1028E000FA94F110F8CF1DC081111BC0CA33C9F48E
:1028F0000E94CB131092D60686FF05C081E080931C
:10290000DE0682E006C01092DE0689E08093D606DD
:1029100081E08093E0060E94CB130E94CB130E94BB
:10292000CB130E94CB138D2FDF91CF91FF90EF90AF
:10293000DF90CF900895CF92DF92EF92FF92CF93E6
:10294000DF93C090D806D090D906E090DA06F090D8
:10295000DB06C616D706E806F906E1F16B017C0135
:102960006093D8067093D9068093DA069093DB06BD
:102970005C988FEF0E9490138FEF0E949013B70125
:10298000A60181E10E943014811125C0C0E0D0E091
:102990000E94CB138E3F29F02197D1F75C9A80E0FB
:1029A0001AC0E12CF12CC091DC06D091DD06CE0DD1
:1029B000DF1D0E94CB1388838FEFE81AF80AE11419
:1029C00082E0F80681F70E94CB130E94CB130E948D
:1029D000CB135C9A81E0DF91CF91FF90EF90DF9075
:1029E000CF900895CF93DF93AB01BC0188E10E94A3
:1029F000301481113DC05C988EEF0E949013C0E0AE
:102A0000D0E0E091DC06F091DD06EC0FFD1F808147
:102A10000E9490132196C11582E0D80791F78FEF9D
:102A20000E9490138FEF0E9490130E94CB13982F57
:102A30009F71953079F4C0E0D0E00E94CB138111F2
:102A400003C02196D1F706C05C9A8FEF0E949013C5
:102A50005C9808C05C9A0CC09E012F5F3F4F219686
:102A6000C9F3E9010E94CB138823B1F35C9A81E09A
:102A7000DF91CF910895AB01BC0180E10C9430143B
:102A8000CF92DF92EF92FF920F931F93CF93DF933A
:102A90001092D50685E08093D7060E941B130E94F2
:102AA000E31389B1C82FC27081FF98C080E185B956
:102AB0005C9A8FE097E2A0E0B0E08093D806909314
:102AC000D906A093DA06B093DB06C4E60E94D313BE
:102AD000C150E1F75C98CCE08FEF0E949013C15099
:102AE000D9F700E018E040E050E0BA0180E00E9431
:102AF00030140150110931F415B85C9A81E08093CB
:102B0000D5066CC0813079F7CCE08FEF0E9490132E
:102B1000C150D9F7C1E0D2E04AEA51E060E070E08C
:102B200088E00E9430148A3A49F481E08093E006FC
:102B3000C12CD12CE12C80E4F82E09C08130A9F3FE
:102B4000219751F71092E006C12CD12C7601CCE0F0
:102B50008FEF0E949013C150D9F701E012E040E0DE
:102B600050E0BA0187E30E943014B701A60189E260
:102B70000E9430140150110931F482E08093D5068F
:102B800015B85C9A2BC08111EACF1092DE0689E05D
:102B90008093D6068091E006813081F040E050E0DD
:102BA000BA018BE30E94301460E072E080E090E0B4
:102BB0000E943B1515B85C9AC1E010C0C5E6D0E094
:102BC0008FEF0E94901340E050E0BA018AE30E9428
:102BD0003014219719F38111F3CFE0CF8C2FDF91BF
:102BE000CF911F910F91FF90EF90DF90CF900895BC
:102BF00080E185B9089515B808950E943613499B60
:102C000002C08F3FD1F708958F929F92AF92BF92EB
:102C1000CF92DF92EF92FF921F93CF93DF9360E00A
:102C200070E0CB010E949B14E091DC06F091DD0680
:102C300080818D7F893E51F1DF01A250BE4F8D9181
:102C40009C9185359A4A11F086E014C0E254FE4FFB
:102C500084818093E70660857185828593850E94D3
:102C60009B14E091DC06F091DD0680818D7F893E2A
:102C700029F083E08093D50680E0A7C08091E70625
:102C80008B3021F0863011F084E0F4CFC091DC0667
:102C9000D091DD06438554855093F1064093F006AC
:102CA00015851093F60686859785C48CD58CE68CA1
:102CB000F78CC80ED91EE11CF11CC092F206D0920E
:102CC000F306E092F406F092F5068091E70686306E
:102CD00019F4A689B78902C0ACA1BDA1208930E052
:102CE0002A9FB0012B9F700D3A9F700D1124460151
:102CF0005701860E971EA11CB11C8092E30690928C
:102D0000E406A092E506B092E6068630D9F08CA5DE
:102D10009DA5AEA5BFA59C01AD0122503109410979
:102D20005109A12FB0E00E94181B860E971EA81E05
:102D3000B91E8092E8069092E906A092EA06B09247
:102D4000EB0624C00E94091BC60ED71EE81EF91E02
:102D5000C092E806D092E906E092EA06F092EB060D
:102D60008189928935E0880F991F3A95E1F7BA0178
:102D70000E94D31AC60ED71EE11CF11CC092E306B6
:102D8000D092E406E092E506F092E606812F90E00C
:102D900020E031E0320F8130910521F09695879542
:102DA000232FF7CF2093F7068091E8069091E9064C
:102DB000A091EA06B091EB068093EC069093ED06A5
:102DC000A093EE06B093EF0681E0DF91CF911F91C3
:102DD000FF90EF90DF90CF90BF90AF909F908F903B
:102DE00008954F925F926F927F928F929F92AF92CF
:102DF000BF92CF92DF92EF92FF92CF932091E7069E
:102E0000263039F488248A94982CA12CB12C21E006
:102E100007C088248A94982CA82C2FE0B22E22E098
:102E200004C0660F771F881F991F2A95D2F720913B
:102E3000F0063091F10640E050E00E94E71A6B0185
:102E40007C018091F2069091F306A091F406B09176
:102E5000F50629013A01480E591E6A1E7B1ECAE07A
:102E6000C301B2010E949B14882311F0C150C1F725
:102E70008091DC069091DD06FC01EC0DFD1D80814A
:102E80009181A281B381BC01CD01682179218A2180
:102E90009B21CF91FF90EF90DF90CF90BF90AF90AC
:102EA0009F908F907F906F905F904F9008954F927A
:102EB0005F926F927F928F929F92AF92BF92CF92CA
:102EC000DF92EF92FF92CF9388EEC82E83E0D82E48
:102ED000E12CF12CC701B6010E94F11661157105B4
:102EE0008105910591F030EAC31636E8D30631E04A
:102EF000E306F10431F02FEFC21AD20AE20AF20A15
:102F0000E9CF60E070E0CB0151C040EAC41646E86A
:102F1000D40641E0E406F10409F448C08091E706D4
:102F2000863011F481E001C082E0A701960104C05F
:102F3000220F331F441F551F8A95D2F7CA01B901CA
:102F40002091F0063091F10640E050E00E94E71A2F
:102F50002B013C018091F2069091F306A091F406BA
:102F6000B091F50649015A01880E991EAA1EBB1E92
:102F7000CAE0C501B4010E949B14882311F0C1501E
:102F8000C1F78091DC069091DD06FC01E40DF51D92
:102F90008FEF90E0A0E0B0E080839183A283B383C1
:102FA000C501B4010E94F214C701B601CF91FF9090
:102FB000EF90DF90CF90BF90AF909F908F907F90D9
:102FC0006F905F904F9008958F929F92AF92BF92B3
:102FD000CF92DF92EF92FF920F931F93CF93DF93E5
:102FE000EC0155E0CC0FDD1F5A95E1F78E01012F62
:102FF000112706952091F606622F70E0C8010E9405
:10300000D31A7B018091EC069091ED06A091EE061B
:10301000B091EF06672B09F44EC03091E7063630C9
:1030200071F48090E8069090E906A090EA06B090CE
:10303000EB0688159905AA05BB0509F45AC08090CE
:10304000E3069090E406A090E506B090E606BC0189
:10305000CD01681979098A099B0930E040E050E008
:103060000E94E71ACA01B9016E5F7F4F8F4F9F4FD1
:10307000C12CD12C0E94F1162FEFC21AD20ACE1405
:10308000DF04C1F79B01AC0122503109410951090C
:10309000A091F606B0E00E94181B8090E306909085
:1030A000E406A090E506B090E606DC01CB01880DB1
:1030B000991DAA1DBB1D9801322F2227330FC21B59
:1030C000D30B4091F6064E9D90014F9D300D11247B
:1030D000021B130BBC01CD01600F711F811D911DDF
:1030E0000E949B148091DC069091DD068C0F9D1F41
:1030F00002C080E090E0DF91CF911F910F91FF908F
:10310000EF90DF90CF90BF90AF909F908F900895F9
:103110000F931F93FC01892B49F48091E80690914D
:10312000E906A091EA06B091EB0639C09385892F94
:10313000807194FF3DC02091E706828D938D2B30E6
:1031400079F424893589A90160E070E0BA01552736
:103150004427A0E0B0E0842B952BA62BB72B02C010
:10316000A0E0B0E00097A105B105B9F29C01AD0166
:103170002250310941095109A091F606B0E00E94A0
:10318000181B0091E3061091E4062091E5063091AA
:10319000E606DC01CB01800F911FA21FB31F8093B5
:1031A000EC069093ED06A093EE06B093EF0681E057
:1031B0001F910F910895FC01892BB1F08081882324
:1031C00099F0853E89F08E3221F481818E3219F09A
:1031D0000BC0853049F083858E3131F08F3021F07E
:1031E000883211F0CF01089580E090E008950E94A8
:1031F000E4170C94DB180000000000000000000041
:103200000000000000000000089500000000000021
:1032100000002091D7062A95F1F70895AF93AFB734
:10322000AF93BF932F93A091CD062091CC06A22BF4
:10323000A8B9A4EBA6BD20E0E8DFA091CC06A8B910
:10324000B091A106BB2341F02093CD062F91BF91F1
:10325000AF91AFBFAF911895A8E2ABB9A9B1A1707A
:10326000AA0F2A2FA8E0ABB9A0919106B0919206BF
:103270001196A0939106B0939206A03989F4BC30C0
:1032800079F4A1E0A093A106CF93C0E7A8E0B8E24B
:10329000BBB9B8E0BBB9AA95D1F7CA95B9F7CF9138
:1032A0002093CD062F91BF91AF91AFBFAF911895ED
:1032B0002F932FB72F9330995BC03F93309199068E
:1032C00026B124702327E1F326B1247020939906B8
:1032D00028E02A95F1F700004F935F936F937F9357
:1032E0008F93EF93FF9360E0E091A206F091A30625
:1032F0003DE541E00DC05091990676B17470752797
:10330000E1F376B17470709399067EE07A95F1F7E7
:1033100027E081E079B17470D9F4000000007BE10E
:103320007A95F1F776B17470509199067093990679
:10333000752776957695880F872B2A9559F7853DC1
:1033400009F461E06030B9F281933150404099F660
:103350009F93AF93BF930E94DF05BF91AF919F9161
:10336000FF91EF918F917F916F915F914F913F917D
:103370002F912FBF2F91189581E00E9440038FEF6E
:1033800080931501CBE80E94C40F309B03C00E94BC
:10339000FB15F9CF0E94F81583B18F7090910B0146
:1033A000891759F180930B01883049F0843009F472
:1033B000F1C0823009F4F0C08130F9F4EFC082E04E
:1033C0009091A006890FE82FE770E695F0E0E459A8
:1033D000FF4FE49180FFE295EF708E2F887009F027
:1033E000E86FE90FE53C08F0DBC0E093A0068091B0
:1033F000A0068C3810F0C093A0068091CE068823DA
:1034000009F4C1CF8091A106882309F4BCCFF894B8
:10341000809193068F5F8F70809393062091A00612
:10342000269526952093CF0690E030E1239F800DCE
:10343000911D112490939B0680939A060090F706A5
:1034400002C0969587950A94E2F7909317018093AE
:103450001601880F991F880F991FFC01EC55F94F31
:1034600080819181A281B381809394069093950687
:10347000A0939606B0939706809115012817B9F08E
:103480002093150164E08CE00E94821187E891E0AE
:103490000E948C128091CF068A3020F483E091E064
:1034A0000E9450128091CF0690E00E9452128091AB
:1034B000930690910C01981306C0209111019091F0
:1034C000CF06291741F190910D01891306C0209173
:1034D00012019091CF062917F1F090910E018913F6
:1034E00006C0209113019091CF062917A1F0909169
:1034F0000F01891306C0209114019091CF0629175E
:1035000051F090911001891308C09091150180919C
:10351000CF06981302C00E9477058091940690917F
:103520009506A0919606B09197060297A109B10958
:10353000AC01BD010090F70604C0440F551F661F83
:10354000771F0A94D2F78091E3069091E406A09148
:10355000E506B091E606840F951FA61FB71F2091C0
:10356000F60630E02150310940919A0650919B06B1
:1035700024233523BC01CD01620F731F811D911DD2
:103580000E94221410929206109291061092A106A7
:103590007894F9CE84E014CF86E012CF80E010CF8B
:1035A0001092A00624CFAA1BBB1B51E107C0AA1F83
:1035B000BB1FA617B70710F0A61BB70B881F991FD4
:1035C0005A95A9F780959095BC01CD010895A1E287
:1035D0001A2EAA1BBB1BFD010DC0AA1FBB1FEE1F8D
:1035E000FF1FA217B307E407F50720F0A21BB30BD8
:1035F000E40BF50B661F771F881F991F1A9469F754
:1036000060957095809590959B01AC01BD01CF01AF
:103610000895A29FB001B39FC001A39F700D811DAB
:103620001124911DB29F700D811D1124911D0895CB
:103630000E94091BA59F900DB49F900DA49F800D23
:10364000911D11240895FB01DC0105900D920020CD
:10365000E1F70895FB01DC014150504030F08D91BD
:103660000590801919F40020B9F7881B990B08956B
:10367000FB01DC0104C08D910190801921F44150BF
:103680005040C8F7881B990B0895DC01FB0141509D
:10369000504058F049F001900D920020C1F7E61B10
:1036A000F70B3197CF0108951C9201900020E9F7A4
:1036B000F6CFBB274A3031F4992322F4BDE290952E
:1036C00081959F4F0C94961BBB272A3051F4992368
:1036D00042F4BDE290958095709561957F4F8F4F34
:1036E0009F4F0C94741BBB27FA01A62F621771051C
:1036F00081059105330B30FB66F0AA27660F771F13
:10370000881F991FAA1FA21710F0A21B639538509B
:10371000A9F7A05DAA3308F0A95DA19336F7B1110E
:10372000B1931082CA010C94AF1BBB27FB01552734
:10373000AA27880F991FAA1FA41710F0A41B83950E
:103740005051B9F7A05DAA3308F0A95DA193009785
:1037500079F7B111B1931192CB010C94AF1BDC013D
:10376000FC01672F71917723E1F7329704C07C91B8
:103770006D9370836291AE17BF07C8F30895F999EE
:10378000FECF92BD81BDF89A992780B50895262F66
:10379000F999FECF1FBA92BD81BD20BD0FB6F89436
:0E37A000FA9AF99A0FBE01960895F894FFCF99
:0637AE00FFFFFE200000F9
:00000001FF
